:100000006F70007B1300000013000000130000005D
:100010001300000013000000130000001300000094
:100020001300000013000000130000001300000084
:08003000130000007300100032
:100038000000000000000000AE730000BE73000066
:1000480000000000F676000000000000000000003C
:10005800F8760000FA7600000000000000000000BA
:10006800FC76000000000000FE76000000000000A2
:100078000077000002770000047700000677000090
:10008800087700000A770000706600002467000007
:10009800D86700008C6800004069000016770000EF
:1000A800187700001A7700001C7700001E77000000
:1000B80020770000227700002477000026770000D0
:1000C800287700002A7700002C770000F4690000E8
:1000D800307700003E6C000034770000367700006F
:1000E800FE6C0000BE6D00007E6E00003E770000D2
:1000F8004077000042770000447700004677000010
:1001080048770000805F000044600000086100003C
:100118000C6B0000527700005477000056770000FF
:10012800767100005A7700005C7700005E77000067
:1001380060770000627700003E6F0000667700007D
:10014800CC61000090620000FE6F0000B6700000F5
:1001580070770000727700007477000076770000EF
:10016800787700007A7700007C7700007E770000BF
:100178008077000082770000847700005E95000099
:10018800887700008A770000A065000052630000AD
:1001980016640000E06400009477000036720000E6
:1001A800987700009A7700009C770000F6720000AC
:1001B800A0770000A2770000A4770000A6770000CF
:1001C800A8770000AA770000AC770000AE7700009F
:1001D8000000000000000000000000000000000017
:1001E8000000000000000000000000000000000007
:0801F8000000000000000000FF
:100200003D432A876373C3029377F700BDEFADE5E3
:10021000937606FF3D8ABA960CC34CC30CC74CC7F5
:100220004107E36BD7FE11E28280B306C3408A0622
:100230009702000096966780A6002307B700A306E2
:10024000B7002306B700A305B7002305B700A30432
:10025000B7002304B700A303B7002303B700A3022A
:10026000B7002302B700A301B7002301B700A30022
:10027000B7002300B700828093F5F50F93968500B1
:10028000D58D93960501D58D61B79396270097027A
:10029000000096968682E78086FA9680C1171D8FA9
:1002A0003E96E374C3F8A5B7011122CE00102326B1
:1002B000A4FE37F500E08328450037F500E093F809
:1002C000E8FF2322150183A881820965130505F43F
:1002D00033D5A802AA8601470325C4FEAA87014890
:1002E00037F500E03303F702B308D8029A98338356
:1002F000F60233B6F6029A85B387C8003E860CC96B
:1003000050C9B7F700E09843B7F700E0136707015B
:1003100098C3B7F700E09843B7F700E013671702F8
:1003200098C30100B7F700E0DC4313F717008547D7
:10033000E31AF7FEB7F700E09843B7F700E0799BC0
:1003400098C30100724405618280011106CE22CC5F
:100350000010AA8E2E8E32833685BA853E86C286DE
:100360004687F687A307F4FEF2872307F4FE9A87F1
:10037000A306F4FEAA872306F4FEAE87A305F4FEC7
:10038000B2872305F4FEB687A304F4FEBA872304DC
:10039000F4FE8347F4FE93068004014681453E85C2
:1003A000D5228347E4FE93068004014681453E85BD
:1003B000D12A8347D4FE93068004014681453E85B9
:1003C000D1228347C4FE93068004014681453E85C1
:1003D000552A8347B4FE93068004014681453E8535
:1003E00055228347A4FE93068004014681453E853D
:1003F000512A834794FE93068004014681453E8539
:100400005122834784FE93068004014681453E8540
:10041000952A8347440093068004014681453E8522
:1004200095228347040093068004014681453E855A
:10043000912A8347840093068004014681453E85C6
:1004400091220100F240624405618280011106CED2
:1004500022CC00102326A4FE2324B4FEB2873687C4
:100460002313F4FEBA872312F4FE85450965EF7065
:100470003033B70705500D472380E700B707055015
:100480000547A380E700B7070550035744FE2392B2
:10049000E700B7070550035764FE2393E700B7074B
:1004A00005500327C4FE98C7B7070550032784FEED
:1004B000D8C7B707055011472381E70081451305C9
:1004C0006005EF50F02113056005EF50B01D0100ED
:1004D000F240624405618280011122CE0010232681
:1004E000A4FE8327C4FE958313F77700B707002087
:1004F0000A0793870704BA979C439C470327C4FEC7
:100500007D8B85463397E600F98FB337F00093F77C
:10051000F70F3E85724405618280797122D60018FA
:10052000232EA4FC8327C4FD958393F7F70F9D8B9F
:10053000A307F4FE8327C4FD93F7F70FFD8B230772
:10054000F4FE0347F4FEB70700200A079387070469
:10055000BA979C43D8478347E4FE8546B397F60095
:10056000C207C1833E868346F4FEB70700208A0691
:1005700093870704B6979C43318FD8C70100325444
:1005800045618280797106D622D40018232EA4FCFE
:10059000232CB4FCB2872328D4FCA30BF4FC232027
:1005A00004FE232204FE232404FE8327C4FD958336
:1005B00093F7F70F9D8BA307F4FE8327C4FD93F7F2
:1005C000F70FFD8B2307F4FE8347F4FE91E7854583
:1005D0001145EF70502191A80347F4FE854763173A
:1005E000F70085452145EF70102081A00347F4FEF8
:1005F00089476317F70085454145EF70D01E35A048
:100600000347F4FE8D476318F70085451305000284
:10061000EF70701D19A80347F4FE91476317F700A8
:10062000854513050004EF70101C8347E4FE054761
:10063000B317F700C207C1832310F4FE032784FD1C
:1006400085476317F702832704FDC207C183A1838F
:10065000C207C18389E78D472322F4FE11A88327AF
:1006600004FDC207C183A183C207C1832322F4FE14
:10067000832704FDC207C18393F7F70F2324F4FEF9
:100680000347F4FEB70700200A0793870704BA97C9
:100690009C43130704FEBA853E85EF706021032753
:1006A00084FD85476319F7020347F4FEB70700206E
:1006B0000A0793870704BA9794438347E4FE0547E4
:1006C000B317F700C207C183034774FD3A86BE859E
:1006D0003685EF7080400100B2502254456182801F
:1006E0005D7186C6A2C48008232EA4FA232CB4FA16
:1006F000232AC4FA8327C4FBC1838D453E85EF10AE
:100700006034AA873E871306D00AD5679385C776DB
:100710003A85EF30306B032744FB89679387177165
:10072000B337F70093F7F70F3E871306F00AD56744
:100730009385C7763A85EF30F068232E04FC23209A
:1007400004FE231204FE232604FC232804FC232A8F
:1007500004FC232C04FC231504FE8327C4FBC18363
:10076000BD8B3E85EF1060348327C4FB93F7F70FF2
:1007700093068031014685453E85293585450545E9
:10078000EF707006B7370140938707C02326F4FE49
:100790008327C4FBC183BD8B2547636EF706139780
:1007A0002700D967938707C6BA979C438287B737D4
:1007B0000140938707C02326F4FEB1A8B707004085
:1007C0002326F4FE89A8B707004093870740232615
:1007D000F4FE91A0B7170040938707802326F4FE0C
:1007E0001DA8B7170040938707C02326F4FE25A055
:1007F000B7370140938707402326F4FE29A8B7574F
:100800000140938707C02326F4FE31A0B75701406B
:100810002326F4FE01008327C4FB13D7C7008D47AE
:10082000631AF7008545B70716001385070CEF70AC
:10083000402E15AA8327C4FB13D7C700C547631AE8
:10084000F7008545B707180013850710EF70602C77
:1008500019AA8327C4FB13D7C700C947631AF70037
:100860008545B707180013850720EF70802AE5A893
:100870008327C4FB13D7C700CD47631AF70085450C
:10088000B707180013850730EF70A028E9A8832761
:10089000C4FB13D7C70093072002631AF7008545EE
:1008A000B7171A0013850780EF70A0266DA883275D
:1008B000C4FB13D7C70093073002631AF7008545BE
:1008C000B7171A00138507C0EF70A02469A8832703
:1008D000C4FB13D7C700930710036317F7008545C0
:1008E0000565EF70002341A08327C4FB13D7C70021
:1008F00093071007631AF7008545B7070080138533
:100900004700EF70002185A08327C4FB13D7C700E1
:1009100093073008631AF7008545B70713801385DE
:100920000701EF70001F81A08327C4FB13D7C70006
:1009300093071009631AF7008545B70715801385DB
:100940000702EF70001D05A08327C4FB13D7C70063
:10095000930730096319F7008545B707158013859C
:100960000704EF70001B03A78182832784FBB35722
:10097000F702C1832315F4FE03A781828357A4FEE7
:100980008507BE86832784FBB387F602B357F70239
:100990002314F4FE035784FE832744FB3307F70236
:1009A000896793870771B357F7022313F4FE8357C0
:1009B00084FEFD17C207C1832310F4FE8357A4FEF3
:1009C000231EF4FC231104FE231F04FC230204FE57
:1009D0009307C4FDBE850325C4FEEF70D00E9307B8
:1009E00000072316F4FC85472317F4FC231804FCA6
:1009F000835764FE2319F4FC8947231AF4FC8947C2
:100A0000231BF4FC231C04FC231D04FC8327C4FBD0
:100A1000A1838D8B9DE39307C4FCBE850325C4FE93
:100A2000EF705022A1450325C4FEEF80201A9145A6
:100A30000325C4FEEF80402E45A08327C4FBA1837D
:100A400013F7370085476315F7029307C4FCBE858B
:100A50000325C4FEEF70D038A1450325C4FEEF8006
:100A6000A01B930500400325C4FEEF80A02FADA07E
:100A70008327C4FBA18313F7370089476314F70268
:100A80009307C4FCBE850325C4FEEF709053A145B7
:100A90000325C4FEEF80E01D91450325C4FEEF80D1
:100AA000C0311DA88327C4FBA18313F737008D47EE
:100AB0006314F7029307C4FCBE850325C4FEEF70E0
:100AC000106EA1450325C4FEEF80601F9305004012
:100AD0000325C4FEEF80203385450325C4FEEF8047
:100AE000E00885450325C4FEEF80C0020100B64042
:100AF000264461618280797106D622D40018232EA3
:100B0000A4FC8327C4FDB337F00093F7F70F3E87AB
:100B100013061004D5679385877B3A85EF30902ABA
:100B20008327C4FD9C43BD8B0547B317F7009396FD
:100B30000701C1828327C4FD9C4313D75700B70721
:100B400000200A0793870704BA979C43368798CBFF
:100B50008327C4FDDC43BD8B0547B317F70093968D
:100B60000701C1828327C4FDDC4313D75700B707B1
:100B700000200A0793870704BA979C43368798CBCF
:100B80008327C4FDDC472326F4FE01008327C4FE2F
:100B90001387F7FF2326E4FEF5FB8327C4FDDC4320
:100BA000BD8B0547B317F70093960701C1828327D2
:100BB000C4FDDC4313D75700B70700200A0793870B
:100BC0000704BA979C433687D8CB8327C4FDDC47FC
:100BD0002324F4FE0100832784FE1387F7FF2324D8
:100BE000E4FEF5FB8327C4FD9C43BD8B0547B3178B
:100BF000F70093960701C1828327C4FD9C4313D756
:100C00005700B70700200A0793870704BA979C4349
:100C10003687D8CB0100B250225445618280797169
:100C200006D622D40018232EA4FC8327C4FDB33794
:100C3000F00093F7F70F3E8713064005D5679385BD
:100C4000877B3A85EF3010188327C4FDDC43BD8BCA
:100C50000547B317F70093960701C1828327C4FDA8
:100C6000DC4313D75700B70700200A079387070410
:100C7000BA979C433687D8CB8327C4FD9C43BD8B52
:100C80000547B317F70093960701C1828327C4FD78
:100C90009C4313D75700B70700200A079387070420
:100CA000BA979C433687D8CB8327C4FDDC472326DD
:100CB000F4FE01008327C4FE1387F7FF2326E4FE1A
:100CC000F5FB8327C4FD9C43BD8B0547B317F70095
:100CD00093960701C1828327C4FD9C4313D7570015
:100CE000B70700200A0793870704BA979C43368703
:100CF00098CB8327C4FDDC472324F4FE010083271F
:100D000084FE1387F7FF2324E4FEF5FB8327C4FD4D
:100D1000DC43BD8B0547B317F70093960701C182EB
:100D20008327C4FDDC4313D75700B70700200A0709
:100D300093870704BA979C43368798CB8327C4FDD3
:100D4000DC472322F4FE0100832744FE1387F7FFCC
:100D50002322E4FEF5FB0100B2502254456182805B
:100D6000797106D622D40018232EA4FCAE87A30DD9
:100D7000F4FC8327C4FDB337F00093F7F70F3E87E9
:100D800013069006D5679385877B3A85EF309003ED
:100D90008327C4FD9C43BD8B0547B317F70093968B
:100DA0000701C1828327C4FD9C4313D75700B707AF
:100DB00000200A0793870704BA979C433687D8CB4D
:100DC0008347B4FD95CB8327C4FDDC43BD8B05472A
:100DD000B317F70093960701C1828327C4FDDC4354
:100DE00013D75700B70700200A0793870704BA975D
:100DF0009C43368798CB0DA88327C4FDDC43BD8B6D
:100E00000547B317F70093960701C1828327C4FDF6
:100E1000DC4313D75700B70700200A07938707045E
:100E2000BA979C433687D8CB8327C4FDDC4723265B
:100E3000F4FE01008327C4FE1387F7FF2326E4FE98
:100E4000F5FB8327C4FD9C43BD8B0547B317F70013
:100E500093960701C1828327C4FD9C4313D7570093
:100E6000B70700200A0793870704BA979C43368781
:100E700098CB8327C4FDDC472324F4FE010083279D
:100E800084FE1387F7FF2324E4FEF5FB8327C4FDCC
:100E90009C43BD8B0547B317F70093960701C182AA
:100EA0008327C4FD9C4313D75700B70700200A07C8
:100EB00093870704BA979C433687D8CB8327C4FD12
:100EC000DC43BD8B0547B317F70093960701C1823A
:100ED0008327C4FDDC4313D75700B70700200A0758
:100EE00093870704BA979C43368798CB0100B2508A
:100EF000225445618280797106D622D40018232EAF
:100F0000A4FC8327C4FDB337F00093F7F70F3E87A7
:100F100013065008D5679385877B3A85EF30806A42
:100F2000A30704FE8327C4FD9C43BD8B0547B3176D
:100F3000F70093960701C1828327C4FD9C4313D712
:100F40005700B70700200A0793870704BA979C4306
:100F50003687D8CB8327C4FDDC43BD8B0547B31749
:100F6000F70093960701C1828327C4FDDC4313D7A2
:100F70005700B70700200A0793870704BA979C43D6
:100F8000368798CB8327C4FDDC472324F4FE010079
:100F9000832784FE1387F7FF2324E4FEF5FB8327D2
:100FA000C4FD9C43BD8B0547B317F700939607011B
:100FB000C1828327C4FD9C4313D75700B707002085
:100FC0000A0793870704BA979C43368798CB8327F1
:100FD000C4FDDC472322F4FE0100832744FE13876F
:100FE000F7FF2322E4FEF5FB8327C4FDDC433E85A7
:100FF000EFF08FCEAA8781C78547A307F4FE83272A
:10100000C4FD9C43BD8B0547B317F70093960701BA
:10101000C1828327C4FD9C4313D75700B707002024
:101020000A0793870704BA979C433687D8CB832750
:10103000C4FDDC472320F4FE0100832704FE138750
:10104000F7FF2320E4FEF5FB8347F4FE3E85B25014
:10105000225445618280797106D622D40018232E4D
:10106000A4FCAE87A30DF4FC8327C4FDB337F000C6
:1010700093F7F70F3E871306700AD5679385877B32
:101080003A85EF302054930700F8A307F4FE09AA2D
:101090000347B4FD8347F4FEF98F93F7F70F95CB21
:1010A0008327C4FDDC43BD8B0547B317F700939638
:1010B0000701C1828327C4FDDC4313D75700B7075C
:1010C00000200A0793870704BA979C43368798CB7A
:1010D0000DA88327C4FDDC43BD8B0547B317F7007C
:1010E00093960701C1828327C4FDDC4313D75700C1
:1010F000B70700200A0793870704BA979C433687EF
:10110000D8CB8347F4FE8583A307F4FE8327C4FD71
:10111000DC472324F4FE0100832784FE1387F7FFB6
:101120002324E4FEF5FB8327C4FD9C43BD8B0547C8
:10113000B317F70093960701C1828327C4FD9C4330
:1011400013D75700B70700200A0793870704BA97F9
:101150009C43368798CB8327C4FDDC472322F4FECB
:101160000100832744FE1387F7FF2322E4FEF5FBEB
:101170008327C4FD9C43BD8B0547B317F7009396A7
:101180000701C1828327C4FD9C4313D75700B707CB
:1011900000200A0793870704BA979C433687D8CB69
:1011A0008347F4FEE39607EE0325C4FDA933AA871F
:1011B000FD17B337F00093F7F70F3E85B250225476
:1011C00045618280397106DE22DC26DA8000232622
:1011D000A4FCAE87A305F4FC8327C4FCB337F0005E
:1011E00093F7F70F3E871306000CD5679385877B2F
:1011F0003A85EF30203DA30704FEA1472307F4FE04
:101200008327C4FC9C43BD8B0547B317F700939617
:101210000701C1828327C4FC9C4313D75700B7073B
:1012200000200A0793870704BA979C433687D8CBD8
:101230008327C4FCDC472324F4FE0100832784FEBB
:101240001387F7FF2324E4FEF5FB8327C4FCDC436C
:10125000BD8B0547B317F70093960701C18283271B
:10126000C4FCDC4313D75700B70700200A07938755
:101270000704BA979C43368798CB7DA88327C4FC84
:101280009C43BD8B0547B317F70093960701C182B6
:101290008327C4FC9C4313D75700B70700200A07D5
:1012A00093870704BA979C433687D8CB8327C4FC1F
:1012B000DC472322F4FE0100832744FE1387F7FF57
:1012C0002322E4FEF5FB8327C4FC9C43BD8B05472A
:1012D000B317F70093960701C1828327C4FC9C4390
:1012E00013D75700B70700200A0793870704BA9758
:1012F0009C43368798CB8327C4FCDC472320F4FE2D
:101300000100832704FE1387F7FF2320E4FEF5FB8B
:101310008347F4FE860793948701E1848327C4FC06
:10132000DC433E85EFF04F9BAA87E207E187C58F3C
:10133000E207E187A307F4FE8347E4FE1387F7FF84
:101340002307E4FE85FF8327C4FC9C43BD8B054730
:10135000B317F70093960701C1828327C4FC9C430F
:1013600013D75700B70700200A0793870704BA97D7
:101370009C433687D8CB8327C4FCDC47232EF4FC60
:1013800001008327C4FD1387F7FF232EE4FCF5FB40
:101390008347B4FCBE850325C4FCD9328347F4FEE1
:1013A0003E85F2506254D25421618280011106CEF2
:1013B00022CC00102326A4FEAE873287A305F4FEBC
:1013C000BA872305F4FE8327C4FEB337F00093F7F2
:1013D000F70F3E8713062029D5679385877B3A85CB
:1013E000EF30401E0325C4FEEFF0EFF08327C4FE6C
:1013F00083C78700860793F7F70FBE850325C4FED2
:1014000099398347B4FEBE850325C4FEA9318347BD
:10141000A4FEBE850325C4FE3D390325C4FEEFF0BE
:101420001F800100F240624405618280797106D616
:1014300022D40018232EA4FCAE87A30DF4FC83272E
:10144000C4FDB337F00093F7F70F3E871306402A29
:10145000D5679385877B3A85EF30C016A30704FED6
:101460000325C4FDEFF02FE98327C4FD83C7870060
:10147000860793F7F70FBE850325C4FDE93E834732
:10148000B4FDBE850325C4FDF9360325C4FDEFF088
:101490000FF90325C4FDEFF00FE68327C4FD83C7D2
:1014A00087008607E207E18793E71700E207E187F5
:1014B00093F7F70FBE850325C4FD713E85450325CF
:1014C000C4FD0933AA87A307F4FE0325C4FDEFF08A
:1014D0000FF58347F4FE3E85B25022544561828069
:1014E000797106D622D400182326A4FEAE872322C3
:1014F000C4FE2320D4FE232EE4FCA305F4FE8327A0
:10150000C4FEB337F00093F7F70F3E871306F02BB6
:10151000D5679385877B3A85EF30C00A032704FEA1
:101520008327C4FDB307F740B337F00093F7F70FF5
:101530003E871306002CD5679385877B3A85EF306D
:1015400060088327C4FE032704FE98C38327C4FED4
:101550000327C4FDD8C38327C4FE0347B4FE2384F6
:10156000E7008327C4FE032744FED8C7C1460546CB
:101570008545032504FEEFF0EF80D14605468545FD
:101580000325C4FDEFF00F800100B25022544561E5
:101590008280011122CE00102326A4FEAE87A3056F
:1015A000F4FED9670327C4FE0A07938787C8BA9752
:1015B0009C433E878347B4FEC207C1832316F700CE
:1015C0000100D9670327C4FE0A07938787C8BA9723
:1015D0009C4383D78700C207C18393F70708F5F3BD
:1015E0000100724405618280011122CE0010232681
:1015F000A4FEAE872315F4FE8357A4FEA183C20781
:10160000C18393F6F70FD9670327C4FE0A079387B0
:1016100087C8BA979C433E8793970601C1832316D8
:10162000F7000100D9670327C4FE0A07938787C81C
:10163000BA979C4383D78700C207C183898BFDD3A8
:101640008357A4FE93F6F70FD9670327C4FE0A0752
:10165000938787C8BA979C433E8793970601C183B7
:101660002316F7000100D9670327C4FE0A079387F2
:1016700087C8BA979C4383D78700C207C18393F773
:101680000708F5F30100724405618280011122CE42
:1016900000102326A4FE2324B4FE2322C4FE71A836
:1016A000832784FE83D70700A183C207C18393F6F3
:1016B000F70FD9670327C4FE0A07938787C8BA972D
:1016C0009C433E8793970601C1832316F7000100D0
:1016D000D9670327C4FE0A07938787C8BA979C4334
:1016E00083D78700C207C183898BFDD3832784FEFC
:1016F000138727002324E4FE83D7070093F6F70F10
:10170000D9670327C4FE0A07938787C8BA979C4303
:101710003E8793970601C1832316F7000100D9671E
:101720000327C4FE0A07938787C8BA979C4383D7C9
:101730008700C207C183898BFDD3832744FE1387AB
:10174000F7FF2322E4FEA9FF0100D9670327C4FEA7
:101750000A07938787C8BA979C4383D78700C20735
:10176000C18393F70708F5F3010072440561828095
:101770005D7186C6A2C480082326A4FC2324B4FC81
:101780002322C4FC2320D4FC232EE4FA232CF4FAD5
:10179000232A04FBD9670327C4FC0A07938787C859
:1017A000BA979C433E85EF60901585450545EF60EF
:1017B0009003032704FC93073012631DF7000327EF
:1017C000C4FB930750126317F70085450545EF608A
:1017D000403425A0032704FC89679387A714631E60
:1017E000F7000327C4FB89679387C7146317F700C3
:1017F000854537152000EF60C0318327C4FC91E791
:1018000085450565EF60207E25A00327C4FC85473C
:101810006317F70085451165EF60500111A8032794
:10182000C4FC89476316F70085452165EF60100009
:10183000832704FC93F7F70F93068031054685450F
:101840003E85EFE03FD48327C4FB93F7F70F930661
:101850008031054685453E85EFE0DFD2032784FBD6
:10186000C167F917630DF700832784FB93F7F70F20
:1018700093068034054681453E85EFE0BFD00327BF
:1018800044FB9307F00F630DF700832744FB93F7A6
:10189000F70F93060031014685453E85EFE09FCE68
:1018A000232E04FC232004FE232204FE232404FE12
:1018B000231604FE231E04FC93074010231FF4FC90
:1018C000231004FE032784FC85476305F702832762
:1018D00084FC81CF032784FC89476303F702032735
:1018E00084FC8D476304F7020DA8231104FE231224
:1018F00004FE25A0231104FE85472312F4FE31A81F
:1019000089472311F4FE231204FE01A889472311FD
:10191000F4FE85472312F4FE0100231704FE03A7FB
:101920008182832744FCB357F7022317F4FE03A7F1
:101930008182832744FCB377F70291E78357E4FE63
:10194000FD172317F4FE0357E4FE9307F00763F730
:10195000E700930780032317F4FE49A80357E4FE2A
:101960009307F00363F7E700930700032317F4FEE0
:10197000B5A80357E4FEFD4763F7E700930780022D
:101980002317F4FEA5A00357E4FEBD4763F7E70065
:10199000930700022317F4FE91A80357E4FE9D4726
:1019A00063F6E700E1472317F4FE89A00357E4FE3E
:1019B0008D4763F6E700C1472317F4FE05A80357D8
:1019C000E4FE854763F6E700A1472317F4FE39A834
:1019D0008357E4FE81C7231704FE09A8130680225B
:1019E000D967938587800145EF20D03D8357E4FE7A
:1019F0002314F4FE930700202313F4FE231504FEA2
:101A0000231604FED9670327C4FC0A07938787C8F7
:101A1000BA979C433E879307C4FDBE853A85EF6025
:101A20006075D9670327C4FC0A07938787C8BA97EC
:101A30009C4385453E85EF6070030100B640264417
:101A400061618280797122D60018232EA4FC232C98
:101A5000B4FC8547A307F4FE0327C4FD0A07938758
:101A6000C194BA979C4399EB0327C4FD0A07938757
:101A7000C194BA97032784FD98C315A00327C4FD1A
:101A80000A079387C194BA979C43032784FD631682
:101A9000F7008547A307F4FE19A0A30704FE8347B8
:101AA000F4FE3E85325445618280011106CE22CC7F
:101AB00000102326A4FE8327C4FE81EB854585679D
:101AC00013850780EF6020526DA80327C4FE854769
:101AD0006317F70085450545EF6040555DA0032776
:101AE000C4FE89476317F70085450945EF60005438
:101AF00049A80327C4FE8D476317F70085451145A4
:101B0000EF60C052BDA80327C4FE91476317F700DA
:101B100085452145EF608051ADA00327C4FE954760
:101B20006317F70085454145EF60405099A80327AA
:101B3000C4FE99476318F700854513050002EF605E
:101B4000E04E81A00327C4FE9D476317F70085453B
:101B50000965EF60404935A00327C4FEA14763181B
:101B6000F700854537050800EF60E04719A803270F
:101B7000C4FEA5476317F700854537051000EF60E1
:101B800080460100F240624405618280797122D66C
:101B90000018232EA4FCB7370140938707C02326E3
:101BA000F4FE231504FE0327C4FDA54763ECE708F4
:101BB0008327C4FD13972700D967938747C9BA972E
:101BC0009C438287B7370140938707C02326F4FEE2
:101BD00095A8B70700402326F4FEADA0B707004044
:101BE000938707402326F4FEB1A8B71700409387D8
:101BF00007802326F4FEB9A0B7170040938707C0DB
:101C00002326F4FE81A0B71700402326F4FE1DA86A
:101C1000B7170040938707402326F4FE25A0B73767
:101C20000140938707402326F4FE29A8B7570140B7
:101C3000938707C02326F4FE31A0B757014023261F
:101C4000F4FE01000327C4FD0A0793874197BA9762
:101C500098438947631FF7008327C4FE83D7470251
:101C60001397070141838D47B357F7022315F4FEFD
:101C700039A08327C4FE83D747022315F4FE835778
:101C8000A4FE3E85325445618280797122D60018C7
:101C9000232EA4FCB7370140938707C02326F4FE08
:101CA0000327C4FDA54763ECE7088327C4FD13970A
:101CB0002700D9679387C7CBBA979C438287B737EA
:101CC0000140938707C02326F4FE95A8B70700407C
:101CD0002326F4FEADA0B7070040938707402326D4
:101CE000F4FEB1A8B7170040938707802326F4FEBF
:101CF000B9A0B7170040938707C02326F4FE81A040
:101D0000B71700402326F4FE1DA8B717004093879D
:101D100007402326F4FE25A0B737014093870740EC
:101D20002326F4FE29A8B7570140938707C023262E
:101D3000F4FE31A0B75701402326F4FE01008327AB
:101D4000C4FE2392070201003254456182800111D2
:101D500022CE00102326A4FEAE87A305F4FE0100C8
:101D6000D9670327C4FE0A07938747CEBA979C43D7
:101D700083D70700C207C18393F70708F5D3D96754
:101D80000327C4FE0A07938747CEBA979C433E8732
:101D90008347B4FEC207C1832312F70001007244D7
:101DA00005618280011106CE22CC00102326A4FEFC
:101DB0002324B4FE2322C4FE832784FEB337F0001D
:101DC00093F7F70F3E8713061004D967938547856D
:101DD0003A85EF20207F29A8832784FE13871700E8
:101DE0002324E4FE83C70700BE850325C4FE853790
:101DF000832744FE1387F7FF2322E4FEF1FF01004F
:101E0000F240624405618280011106CE22CC0010AE
:101E10002326A4FE2324B4FE832784FEB337F000D8
:101E200093F7F70F3E8713060005D967938547851B
:101E30003A85EF20207939A8832784FE138717007D
:101E40002324E4FE8387070093F7F70FBE8503255D
:101E5000C4FEF53D832784FE83870700F1FF010060
:101E6000F240624405618280011106CE22CC00104E
:101E70002326A4FEAE87A305F4FED9670327C4FE7C
:101E80000A07938747CEBA979C433E878347B4FEA1
:101E90003E86930550523A85EF70602F1387018577
:101EA0008327C4FEBA9783C7070081453E85EF406C
:101EB00020038347B4FE81CF138701858327C4FEA7
:101EC000BA9783C707003E85EF30D07D19A81387E6
:101ED00001858327C4FEBA9783C707003E85EF308C
:101EE000507E0100F240624405618280011122CEE1
:101EF00000102326A4FE2324B4FED9670327C4FEC2
:101F00000A07938747CEBA979C4383D70700C20737
:101F1000C18393F707028DC7D9670327C4FE0A0759
:101F2000938747CEBA979C4383D74700C207C183A4
:101F300013F7F70F832784FE2380E700854711A05E
:101F400081473E85724405618280797106D622D42C
:101F50000018232EA4FC232CB4FC232AC4FC232821
:101F6000D4FC032744FD832704FD3D8F8327C4FD54
:101F7000B207F98F93B7170093F7F70F3E87130651
:101F8000A00AD967938547853A85EF20A063832708
:101F900044FD13D78700832704FDA183B307F740CF
:101FA00093B7170093F7F70F3E871306B00AD96768
:101FB000938547853A85EF20E060832744FD93F7BA
:101FC000F70FE146014685453E85EFE0AFDB83270D
:101FD00004FD93F7F70F93068004014681453E8583
:101FE000EFE04FDA85450545EF50F07F032744FDCC
:101FF000C167FD17F98F0D67130707386387E7205F
:102000000D67130707386369F70405671307571649
:102010006381E716056713075716636FF700130709
:10202000F022638AE70C130760306381E71013071F
:1020300060126388E70865A6096713078736638B14
:10204000E7160D67130707126387E7180967130779
:10205000A7146380E71461A615671307A738638E7A
:10206000E72615671307A7386362F702116713079E
:1020700087386380E7201567130787126385E72297
:10208000116713074712638CE71A91AE196713079C
:10209000C7386388E72A19671307C7386368F700EA
:1020A0001967130767106384E72615AE1D671307CA
:1020B000E7106382E72C1D671307E7386387E72E75
:1020C00039AEB7070140D44FB7070140370700FCCE
:1020D0007D17758FD8CFB7070140D843B7070140A8
:1020E0006D9BD8C3B7070140D843B70701401367BA
:1020F0004700D8C3EDA4B7070140D44FB70701404C
:10210000370700FC7D17758FD8CFB7070140D44F34
:10211000B707014037070004558FD8CFB7070140F4
:10212000D843B70701406D9BD8C355ACB7070140F2
:10213000D44FB7070140370700FC7D17758FD8CF04
:10214000B7070140D44FB707014037070004558F48
:10215000D8CFB7070140D843B70701406D9BD8C31C
:10216000B7070140D843B707014013674700D8C3FA
:10217000BDA4B7070140D843B70701405D9BD8C352
:10218000B7070140D843B707014013678700D8C39A
:10219000B9A4B7070140D843B70701401377F7FC4C
:1021A000D8C3B7070140D843B707014013670701F9
:1021B000D8C335A4B7070140D843B7070140137708
:1021C000F7FCD8C3B7070140D843B70701401367EE
:1021D0000703D8C329A4B7070140D44FB70701406C
:1021E0003707FDFF7D17758FD8CFB7070140D44F54
:1021F000832744FDA18313970701B70703007D8F51
:10220000B7070140558FD8CFD9AAB7070140D44F9F
:10221000B70701403707FDFF7D17758FD8CFB70788
:102220000140D44F832744FDA18313970701B707CB
:1022300003007D8FB7070140558FD8CF4DA2B70758
:102240000140D44FB70701403707F4FF7D17758F62
:10225000D8CFB7070140D44F832744FDA1831397FC
:102260002701B7070C007D8FB7070140558FD8CFE6
:10227000BDA2B7070140D44FB70701403707F4FFAD
:102280007D17758FD8CFB7070140D44F832744FD02
:10229000A18313972701B7070C007D8FB707014073
:1022A000558FD8CF2DAAB7070140D44FB7070140AB
:1022B0003707D0FF7D17758FD8CFB7070140D44FB0
:1022C000832744FDA18313974701B70730007D8F13
:1022D000B7070140558FD8CF19A2B7070140D44F97
:1022E000B70701403707D0FF7D17758FD8CFB707E5
:1022F0000140D44F832744FDA18313974701B707BB
:1023000030007D8FB7070140558FD8CFC9A8B707D8
:102310000140D44FB7070140370740FF7D17758F45
:10232000D8CFB7070140D44F832744FDA18313972B
:102330006701B707C0007D8FB7070140558FD8CF21
:1023400079A8B7070140D44FB7070140370740FFCE
:102350007D17758FD8CFB7070140D44F832744FD31
:10236000A18313976701B707C0007D8FB7070140AE
:10237000558FD8CFADA0B7070140D44FB707014064
:10238000370700FD7D17758FD8CFB7070140D44FB1
:10239000832744FDA18313978701B70700037D8F2F
:1023A000B7070140558FD8CF1DA8B7070140D44FBC
:1023B000B7070140370700FD7D17758FD8CFB707E6
:1023C0000140D44F832744FDA18313978701B707AA
:1023D00000037D8FB7070140558FD8CF01008327B9
:1023E000C4FD91E785451165EF50F03F69A80327CB
:1023F000C4FD85476318F700854537050200EF5097
:10240000F04251A00327C4FD89476318F7008545B2
:1024100037050400EF509041BDA00327C4FD8D4750
:102420006318F700854537050800EF503040A1A834
:102430000327C4FD91476318F70085453705100051
:10244000EF50D03E89A00327C4FD95476318F700DD
:10245000854513050004EF50703D35A00327C4FDEA
:1024600099476318F700854513050008EF50103CA5
:1024700019A80327C4FD9D476317F7008545130579
:102480000010EF50B03A232004FE232204FE232440
:1024900004FE232604FE832784FD2320F4FE23125A
:1024A00004FE231304FE231404FE231604FEB14786
:1024B0002315F4FED9670327C4FD0A07938747CE87
:1024C000BA979C433E87930704FEBE853A85EF602A
:1024D000D022D9670327C4FD0A07938747CEBA974E
:1024E0009C4385453E85EF6090440100B2502254E4
:1024F00045618280411106C622C4000883A7418637
:102500000547638BE7006388070C0947638DE70085
:102510000D47638FE702E9A083A7018613871700A1
:1025200023A0E18675A883A701861387170023A03F
:10253000E18603A70186A54763F1E70AB7070020F4
:10254000938707049C4B1167D8CB23A0018671A009
:1025500003A7818685476314F7081305F008EFD0B9
:10256000BFF7AA87ADC31945EFF04FE2AA873E87B0
:1025700083A701861D8F9307600963F2E70619455B
:10258000EFF0AFF083A70186D3F717D05385F7207C
:10259000EFF08074D96703A6078A83A6478AEFE025
:1025A0000039AA872E883E85C285EFF0A05BAA87F6
:1025B000139707014183B7070020239CE7260947AB
:1025C00023A4E18629A81945EFF04FDCAA873E87AE
:1025D00023A0E18629A0010021A0010011A0010093
:1025E0000100B240224441018280411106C622C44A
:1025F000000883A741860947637CF7000D47639A6B
:10260000E7001945EFF06FE8054723A4E18611A024
:1026100001000100B240224441018280011106CE36
:1026200022CC0010232204FE83C7D18663810714C5
:1026300009A8930734FE0546BE851385C199EF208E
:10264000701D930734FEBE851D45EFF03F8AAA87B3
:10265000EDF3034734FEA947631BF7109947232284
:10266000F4FE130744FE930784FE85463A86BE8532
:102670001385C199EF20B078930784FE1387370044
:102680000D46D9679385878A3A85EF00017EAA8730
:102690009DEB03A7418789476304F70C054723AAED
:1026A000E1861385C199EF204069AA872322F4FEB1
:1026B000930744FE81463E86938581A31385C19985
:1026C000EF20F07371A8930784FE138737000D463F
:1026D000D9679385C78A3A85EF002179AA879DEB50
:1026E00003A701878947630DF706054723A8E186FD
:1026F0001385C199EF206064AA872322F4FE930713
:1027000044FE81463E869385819B1385C199EF20C7
:10271000106FB9A0930784FE138737000D46D96761
:102720009385078B3A85EF004174AA8795EB03A741
:10273000818789476306F702054723ACE186138545
:10274000C199EF20805FAA872322F4FE930744FEFD
:1027500081463E86938581AB1385C199EF20306A0F
:102760001385C199EF20C03805472386E186010013
:10277000F240624405618280011106CE22CC001035
:10278000AA87A307F4FEB707002093870704DC435A
:102790000567D8CB8347F4FEBE850545EFE07FDFB4
:1027A000B707002093870704DC43056798CB010037
:1027B000F240624405618280011106CE22CC0010F5
:1027C000AA8736872317F4FEAE872316F4FEB28756
:1027D0002315F4FEBA872314F4FE83C70181C207D0
:1027E000C1830357E4FEB337F70093F7F70F3E8733
:1027F0001306200BD967938587993A85EF10905C73
:1028000083C71181C207C1830357C4FEB337F700E2
:1028100093F7F70F3E871306300BD9679385879997
:102820003A85EF10305A83C70181C207C18303572D
:10283000A4FEB337F70093F7F70F3E871306400B5C
:10284000D967938587993A85EF10D05783C711814F
:10285000C207C183035784FEB337F70093F7F70F1E
:102860003E871306500BD967938587993A85EF10F9
:10287000705583A781800547638CE70681CB0947A4
:10288000638AE70C0D476389E71249AA1305A00282
:10289000E5358357E4FE93878702C207C183BE856F
:1028A0000545EFE07FD48357A4FE93878702C207D4
:1028B000C183BE850545EFE03FD31305B0026D3DF2
:1028C0008357C4FE93874703C207C183BE8505456E
:1028D000EFE09FD1835784FE93874703C207C183EC
:1028E000BE850545EFE05FD01305C00271353DA2FE
:1028F0001305A00251358357E4FE93878702C20770
:10290000C183BE850545EFE03FCE8357A4FE938784
:102910008702C207C183BE850545EFE0FFCC1305E2
:10292000B002993D8357C4FE93875703C207C18302
:10293000BE850545EFE05FCB835784FE9387570341
:10294000C207C183BE850545EFE01FCA1305C0025B
:102950002535E9A01305A00205358357E4FE9387CA
:102960004703C207C183BE850545EFE0FFC7835714
:10297000A4FE93874703C207C183BE850545EFE0E8
:10298000BFC61305B002CD3B8357C4FE93878702B1
:10299000C207C183BE850545EFE01FC5835784FE8E
:1029A00093878702C207C183BE850545EFE0DFC379
:1029B0001305C002D1339DA01305A002753B8357B8
:1029C000E4FE93875703C207C183BE850545EFE048
:1029D000BFC18357A4FE93875703C207C183BE8537
:1029E0000545EFE07FC01305B00279338357C4FE7D
:1029F00093878702C207C183BE850545EFE0DFBE2E
:102A0000835784FE93878702C207C183BE8505452D
:102A1000EFE09FBD1305C002853301000100F240C5
:102A2000624405618280797106D622D4001893072A
:102A3000C4FD3E85EF1070448547231EF4FC83C718
:102A40000181C207C183231FF4FC83C71181C20720
:102A5000C1832310F4FE83A7C1800547638AE70082
:102A600099EF99472301F4FEA147A301F4FE09A8B9
:102A7000A1472301F4FEC147A301F4FE11A0010008
:102A8000B7370000938727F72324F4FEB7370000F9
:102A90009387C7AA2326F4FE9307C4FD3E85EF1053
:102AA00070430100B250225445618280011106CE6C
:102AB00022CC26CA00100A85AA8403C50181AA88EF
:102AC000FD18232214FF2A8381439358C3011397CF
:102AD000430033E7E80093164300AA85014613D765
:102AE000C501131846003368070193974500AA876C
:102AF0008607BD07918392073301F1408A878507D6
:102B0000858386072320F4FE232404FE232604FE67
:102B1000B707002093870704DC4713070020D8CBB2
:102B200083C70181C207C183FD1713970701418342
:102B300083C71181C207C183FD17C207C183BE8647
:102B40003A86814501458D39232404FE15A0B70737
:102B5000002003D7C727832604FE832784FE860729
:102B6000B6972390E700832784FE85072324F4FE8D
:102B700083C701813E87832784FEE3EAE7FC23269F
:102B800004FE39A8032704FE83C701813E86BA8567
:102B90000545EFE0BFAF8327C4FE85072326F4FE7B
:102BA00083C711813E878327C4FEE3EDE7FCB707A7
:102BB000002093870704DC471307002098CB268169
:102BC0000100130104FEF2406244D2440561828098
:102BD000011122CE00102326A4FE0327C4FE23A445
:102BE000E18083A7818005476376F7000D47636323
:102BF000F70209A841572388E180130770F8A388DA
:102C0000E18009A8130770F82388E1804157A38861
:102C1000E18001000100724405618280011122CE31
:102C20000010AA872E872317F4FEBA872316F4FE16
:102C3000B70700200357E4FE239DE726B7070020CF
:102C40000357C4FE239EE72601007244056182807B
:102C500069712326111223248112001AAA87AE86D5
:102C60003287231FF4ECB687231EF4ECBA87A30D3A
:102C7000F4EC83C70181C207C1830357E4EDB33786
:102C8000F70093F7F70F3E871306601DD96793850A
:102C900087993A85EF10101383C71181C207C1834A
:102CA0000357C4EDB337F70093F7F70F3E871306CA
:102CB000701DD967938587993A85EF10B010A307E7
:102CC00004FE230704FEB707002093870704DC47B0
:102CD00013070020D8CB83A7C1800547638EE70E7A
:102CE000639907268357E4ED950713960701418200
:102CF0008357C4ED9D0793960701C1820357C4ED26
:102D00008357E4EDBA853E85EFF01FABA30704FEC1
:102D100075A08307B4ED138707FE8346F4FE59665A
:102D2000BA878607BA9786071307462FBA97B697CA
:102D300083C70700A306F4FE230704FEB5A083475C
:102D4000D4FE858B8DC78346F4FE0347E4FEBA8725
:102D50008607BA978607B697370700200357A72735
:102D60008607930604FFB697239CE7EE25A08346CB
:102D7000F4FE0347E4FEBA878607BA978607B6973C
:102D8000370700200357C7278607930604FFB69727
:102D9000239CE7EE8347D4FE8583A306F4FE834796
:102DA000E4FE85072307F4FE0347E4FE9D47E3F8AE
:102DB000E7F88347F4FE8507A307F4FE0347F4FE14
:102DC0009547E3F8E7F4930784EE13060003BE8506
:102DD0000545EFE0BF8BBDAA8357E4ED9D07139631
:102DE000070141828357C4EDBD0793960701C18255
:102DF0000357C4ED8357E4EDBA853E85EFF0DF9BC2
:102E0000A30704FE0DAA8307B4ED938607FE83474C
:102E1000F4FE59679206130747D03697BA9783C7CF
:102E200007002306F4FE8307B4ED938607FE83476D
:102E3000F4FEA10759679206130747D03697BA9751
:102E400083C70700A305F4FE230704FE85A083477C
:102E5000C4FE858B95C30347F4FE8347E4FE8E07CB
:102E6000BA97370700200357A7278607930604FF62
:102E7000B697239CE7EE0DA00347F4FE8347E4FEDC
:102E80008E07BA97370700200357C7278607930690
:102E900004FFB697239CE7EE8347C4FE8583230691
:102EA000F4FE8347E4FE85072307F4FE0347E4FEB0
:102EB0009D47E3FEE7F8230704FEA5A08347B4FE81
:102EC000858B85C70347F4FE8347E4FE8E07BA97D8
:102ED00093870704370700200357A7278607930621
:102EE00004FFB697239CE7EE1DA00347F4FE83473B
:102EF000E4FE8E07BA97938707043707002003572D
:102F0000C7278607930604FFB697239CE7EE8347FF
:102F1000B4FE8583A305F4FE8347E4FE85072307FB
:102F2000F4FE0347E4FE9D47E3FAE7F88347F4FE27
:102F30008507A307F4FE0347F4FE9D47E3F5E7EC9E
:102F4000930784EE13060008BE850545EFE00FF4F5
:102F500011A00100B707002093870704DC4713077F
:102F6000002098CB01008320C112032481125561F7
:102F70008280797106D622D40018AA872E87232C46
:102F8000C4FC231FF4FCBA87231EF4FC83C7018111
:102F9000C207C1830357E4FDB337F70093F7F70F78
:102FA0003E871306D022D967938587993A85EF101B
:102FB000606183C71181C207C1830357C4FDB33762
:102FC000F70093F7F70F3E871306E022D967938542
:102FD00087993A85EF10005F231704FE71A083A73D
:102FE000C18005476381E704B5EB0357E4FEBA8768
:102FF0008607BA9786071397070141838357E4FD35
:10300000BA9793960701C1828357E4FE032784FD94
:10301000BA97038707008357C4FD3A86BE85368575
:10302000EFF01FC32DA88357E4FE8E071397070107
:1030300041838357E4FDBA9793960701C182835772
:10304000E4FE032784FDBA97038707008357C4FD76
:103050003A86BE853685EFF0BFBF11A001008357C9
:10306000E4FE85072317F4FE8357E4FE032784FD5F
:10307000BA9783870700A5F70100B2502254456133
:103080008280411106C622C400081308F00FC167F0
:10309000F91705671307F70285669386D60237A6E8
:1030A0004A041306062081450545EFE06FECC14652
:1030B000014685451305C002EFD0CFCCC14601467D
:1030C000854513058006EFD0EFCBC1460546854503
:1030D00013059006EFD00FCBC14605468545130575
:1030E0000006EFD02FCA83A781803E85EFF05FAE48
:1030F000B707002003D7A727B707002083D7C72724
:10310000BE853A85EFF09FB1B7070020938707048B
:10311000DC4713070010D8CB1305800CEFD0CF98F5
:10312000B707002093870704DC471307001098CBEC
:1031300013054006EFD04F97B70700209387070489
:10314000DC4713070020D8CB13056003EFF0CFE274
:1031500013054006EFD04F9583A781800547638014
:10316000E70281CB09476382E7020D476384E702E8
:1031700005A89305000A0545EFE0AFC115A093052A
:1031800000070545EFE0EFC021A881450545EFE0C8
:103190004FC039A09305000C0545EFE08FBF01003B
:1031A0001305A003EFF04FDD95450545EFE06FBE39
:1031B0001305200BEFF04FDCB1450545EFE06FBD87
:1031C000B1450545EFE0EFBC81450545EFE06FBC3B
:1031D000930530030545EFE0CFBB9305300305456C
:1031E000EFE02FBB1305700BEFF00FD993055003E1
:1031F0000545EFE00FBA1305B00BEFF0EFD79305DD
:1032000070030545EFE0EFB81305000CEFF0CFD6E3
:103210009305C0020545EFE0CFB71305200CEFF092
:10322000AFD585450545EFE0CFB61305300CEFF07F
:10323000AFD4C9450545EFE0CFB51305400CEFF01D
:10324000AFD3930500020545EFE0AFB41305600C62
:10325000EFF08FD2BD450545EFE0AFB31305000D8C
:10326000EFF08FD19305400A0545EFE08FB293054B
:10327000100A0545EFE0EFB11305000EEFF0CFCFD8
:103280009305000D0545EFE0CFB091450545EFE012
:103290004FB0B5450545EFE0CFAFC5450545EFE07B
:1032A0004FAFCD450545EFE0CFAE9305B0020545E4
:1032B000EFE02FAE9305F0030545EFE08FAD9305EA
:1032C00040050545EFE0EFAC9305C0040545EFE090
:1032D0004FACE1450545EFE0CFABB5450545EFE027
:1032E0004FABAD450545EFE0CFAAFD450545EFE005
:1032F0004FAA930530020545EFE0AFA91305100E64
:10330000EFF08FC79305000D0545EFE08FA89145BD
:103310000545EFE00FA8B1450545EFE08FA7C5458E
:103320000545EFE00FA7CD450545EFE08FA69305D6
:10333000C0020545EFE0EFA59305F0030545EFE07A
:103340004FA5930540040545EFE0AFA49305100594
:103350000545EFE00FA49305F0020545EFE06FA3EC
:10336000FD450545EFE0EFA2FD450545EFE06FA205
:10337000930500020545EFE0CFA193053002054516
:10338000EFE02FA113051002EFF00FBF4545EFF05E
:10339000AFBE13058007EFC03FF113059002EFF0B9
:1033A000AFBDB707002093870704DC471307002051
:1033B00098CBEFF0AFEFEFF00FE70100B2402244FF
:1033C00041018280397106DE22DC80002326A4FCC4
:1033D0008547A307F4FE231304FE231604FE2324CB
:1033E00004FE232E04FC83D741883E8793070023E5
:1033F0006316F700A5472324F4FE29A0A147232440
:10340000F4FE01008DA8930750FA2300F4FE8327F1
:1034100084FE8A070327C4FCBA978397070093F7B3
:10342000F70FA300F4FE832784FE8A070327C4FC5A
:10343000BA97839727002313F4FE835764FEA18372
:10344000C207C18393F7F70F2301F4FE835764FE8D
:1034500093F7F70FA301F4FE930704FE1146BE8510
:103460001145EFE03F940945EFC01FE4832784FE38
:10347000FD172324F4FE032784FE9307E00FE3F4F3
:10348000E7F883A701883E85EF10300B2A8789472C
:1034900063FFE7028D47232EF4FC83A70188130600
:1034A000C4FD130704FE8146BA853E85EF20201532
:1034B000034714FE9307F00F6308F700034724FE49
:1034C0009307F00F6315F700A30704FE31A8054525
:1034D000EFC09FDD8357C4FE138717002316E4FE59
:1034E0001307700CE37FF7F88347F4FE3E85F25034
:1034F000625421618280797106D622D40018232E6D
:10350000A4FCA30704FE230704FE231504FE2316D0
:1035100004FE232004FE83D741883E8793070023BF
:103520006316F700A547A307F4FE29A0A147A30748
:10353000F4FE01008347F4FEFD1793F7F70FA3078E
:10354000F4FE11AA03D741889307F02263EDE70048
:103550008307F4FE8A070327C4FDBA970397070081
:10356000A5476300F70E930750FA2302F4FEC557F0
:10357000A302F4FE8307F4FE8A070327C4FDBA976B
:10358000839707002315F4FE8357A4FEA183C20787
:10359000C18393F7F70F2303F4FE8357A4FE93F739
:1035A000F70FA303F4FE930744FE1146BE851145B1
:1035B000EFE04FFF231604FE83A701883E85EF103E
:1035C000C0772A87894763F7E7048D472320F4FEF5
:1035D00083A70188130604FE130744FE8146BA85BB
:1035E0003E85EF20C001834754FEA2079396070152
:1035F000C186834764FE1397070141878307F4FE62
:103600008A070326C4FDB297558F4207418723914D
:10361000E70031A80545EFC03FC98357C4FE1387B3
:1036200017002316E4FE1307700CE377F7F803572F
:10363000C4FE9307800C63F7E70085472307F4FE79
:1036400039A801008307F4FE93F7F70FFD1793F7EE
:10365000F70FA307F4FE8307F4FEE3D507EE8347D5
:10366000E4FE3E85B250225445618280011106CEAF
:1036700022CC0010232404FE8547A307F4FE231662
:1036800004FE232204FE83A701883E85EF10E06A32
:10369000AA8791C783A701883E85EF1060459305EF
:1036A000F00F1145EFE0AFEA930750FA2304F4FE60
:1036B000BD57A304F4FE230504FEA30504FE9307EF
:1036C00084FE1146BE851145EFE0CFED231604FEC2
:1036D00083A701883E85EF1040662A87894763F0FB
:1036E000E7048D472322F4FE83A70188130644FED6
:1036F000130784FE8146BA853E85EF10507003475C
:10370000A4FE85476309F7000347A4FE89476304C5
:10371000F700854711A08147A307F4FE31A80545AE
:10372000EFC09FB88357C4FE138717002316E4FE2B
:103730001307700CE37EF7F88347F4FE3E85F240F2
:10374000624405618280011106CE22CC0010A307DD
:1037500004FE9307F4FEBE851145EFE02FF983A721
:10376000018885C70347F4FE9307500A6317F700E3
:1037700083A701883E85EF10A03783A70188034700
:10378000F4FEBA853E85EF10E0620100F24062442B
:1037900005618280411122C600080547238EE1861B
:1037A0000100324441018280011106CE22CC00107A
:1037B000231704FE231604FE232204FE930750FA67
:1037C0002304F4FEC557A304F4FE230504FEC957E1
:1037D000A305F4FE930784FE1146BE851145EFE074
:1037E0006FDC83A701883E85EF1020552A87894723
:1037F00063F0E7048D472322F4FE83A701881306B4
:1038000044FE130784FE8146BA853E85EF10305F83
:10381000834794FEA2071397070141878347A4FEBD
:10382000C207C187D98FC207C1872316F4FE31A80A
:103830000545EFC07FA78357E4FE138717002317C2
:10384000E4FE1307700CE37EF7F88357C4FE3E8551
:10385000F2406244056182805D7186C6A2C4800820
:103860008547A307F4FE054723AAE1809307C4FD1B
:103870001307C004930620061306401F81453E85AA
:10388000EFD01FC69307C4FD3E85EFB0806AAA87BC
:10389000B5EFD96703AEC7A71387C7A703234700B0
:1038A0001387C7A7832887001387C7A70328C700E4
:1038B0001387C7A7084B1387C7A74C4B1387C7A706
:1038C000104F1387C7A7544F1387C7A71853938761
:1038D000C7A7DC53232AC4FB232C64FA232E14FB32
:1038E000232004FD2322A4FC2324B4FC2326C4FCAF
:1038F0002328D4FC232AE4FC232CF4FC930744FB68
:103900003E85EFB0E068AA87A307F4FE8347F4FE84
:103910003E85B640264461618280597186D6A2D424
:1039200080188547A307F4FE230704FE232404FE22
:1039300023AA018013050004EFE05002AA87232484
:10394000F4FE832784FE85E393067020D9671386EF
:10395000879FD9679385C7A40145EF00304D8947FC
:10396000A307F4FE81A46545EFE0407FAA873E8768
:1039700023A0E18883A7018885E79306E020D96723
:103980001386879FD967938587A60145EF00104A64
:10399000032584FEEFE0207D8947A307F4FE19A4E8
:1039A00083A7018893060004032684FE81453E8593
:1039B000EF20201F91679386270691671386C7041F
:1039C0008967938507581145EFE02FD88545114544
:1039D000EFE08FC9EFF05FDDAA873E872392E18891
:1039E00083D7418889CFEFF07FC8AA8789CB8145EB
:1039F0001145EFE06FC78D47A307F4FE65A2D967B5
:103A000003AEC7A71387C7A7032347001387C7A71A
:103A1000832887001387C7A70328C7001387C7A772
:103A2000084B1387C7A74C4B1387C7A7104F1387A3
:103A3000C7A7544F1387C7A718539387C7A7DC534B
:103A40002320C4FD232264FC232414FD232604FD2B
:103A50002328A4FC232AB4FC232CC4FC232ED4FC4E
:103A60002320E4FE2322F4FED96703A3C7AD138706
:103A7000C7AD832847001387C7AD03288700138786
:103A8000C7AD48471387C7AD0C4B1387C7AD504B25
:103A90001387C7AD144F1387C7AD584F9387C7AD72
:103AA0009C53232E64F8232014FB232204FB23249D
:103AB000A4FA2326B4FA2328C4FA232AD4FA232CFE
:103AC000E4FA232EF4FA930704FC3E85EFF09F8F6F
:103AD000AA8785C79306B024D9671386879FD967BD
:103AE000938547AA0145EF00703481451145EFE009
:103AF000AFB78547A307F4FE75A09307C4F93E85C9
:103B0000EFF07F9FAA8785C793067025D967138634
:103B1000879FD967938507AC0145EF003031814518
:103B20001145EFE06FB48547A307F4FEA5A823076E
:103B300004FEA1A88347E4FE85078A07130704FF54
:103B4000BA97039707FD8347E4FE8A07930604FFAD
:103B5000B6978397C7FA631FF7028347E4FE85078A
:103B60008A07130704FFBA97039727FD8347E4FEEC
:103B70008A07930604FFB6978397E7FA631CF7005A
:103B80008347E4FE85072307F4FE0347E4FEA147CD
:103B9000E3F2E7FA8347E4FE93B7870093F7F70F62
:103BA000A307F4FE032584FEEFE0E05B83A7018812
:103BB0003E85EFE0405B23A001888347F4FE3E850D
:103BC000B650265465618280797106D622D40018D9
:103BD000A30704FEB73700001386477981450D45DA
:103BE0007928EFF07FC7AA8785C3B737000013860F
:103BF0004779B7370000938567740D454920EFF08A
:103C0000DFD1AA87A307F4FE8347F4FEB9E7914703
:103C10003EC495473EC299473EC0930890021308A0
:103C20008002930760021307B00493069004130602
:103C30008004A9452545EFC04FF193068007996799
:103C400013860782B70700209385075BB70700201C
:103C50001385075BEFC08FFF29A001468145014511
:103C600039288347F4FE3E85B25022544561828054
:103C7000411122C600080100324441018280011135
:103C800022CE00102326A4FE2324B4FE2322C4FE49
:103C90000327C4FE23A4E188832744FE81C783272A
:103CA00044FE29A0B7470000938707C723AEF180E1
:103CB000832784FE81C7832784FE29A0B74700009D
:103CC000938707C723ACF1800100724405618280AD
:103CD000411122C60008B71702409843B7170240A7
:103CE0001367170098C3B7170240D443B7170240B1
:103CF0003707FFF8758FD8C3B71702409443B7173B
:103D000002403707F7FE7D17758F98C3B71702403B
:103D10009443B71702403707FCFF7D17758F98C390
:103D2000B7170240D443B7170240370781FF7D170A
:103D3000758FD8C3B717024037079F0098C7010097
:103D4000324441018280797106D622D40018232E94
:103D5000A4FCEFF0FFF7232604FE232404FEB7178C
:103D600002409443B71702404167558F98C3B71775
:103D700002409843B7070200F98F2324F4FE8327FB
:103D8000C4FE85072326F4FE832784FE91E70327DC
:103D9000C4FE8567E31DF7FCB71702409843B707D9
:103DA0000200F98F89C785472324F4FE19A0232434
:103DB00004FE032784FE85476312F7163717024077
:103DC000B71702405843D8C337170240B71702400D
:103DD0005843D8C337170240B71702405843D8C3D7
:103DE000B7170240D443B71702403707C1FF7D170A
:103DF000758FD8C30327C4FDB7479508938707403D
:103E0000631BF700B7170240D443B717024041675E
:103E1000558FD8C355A80327C4FDB7172707938725
:103E200007E0631CF700B7170240D443B7170240FE
:103E300037073900558FD8C341A80327C4FDB7E71A
:103E4000B80593870780631CF700B7170240D44377
:103E5000B717024037072900558FD8C3B5A00327ED
:103E6000C4FDB7A74A0493870720631CF700B71760
:103E70000240D443B717024037071D00558FD8C3FF
:103E8000A1A00327C4FDB777DC02938707C0631C9A
:103E9000F700B7170240D443B717024037071100A5
:103EA000558FD8C315A00327C4FDB7376E0193877C
:103EB0000760631BF700B7170240D443B7170240EF
:103EC00037070500558FD8C3B71702409443B7177B
:103ED000024037070001558F98C30100B717024011
:103EE0009843B7070002F98FF5DBB7170240D843B4
:103EF000B7170240719BD8C3B7170240D843B71712
:103F0000024013672700D8C30100B7170240DC4303
:103F100013F7C700A147E31AF7FE11A001A0B250A2
:103F2000225445618280011106CE22CC0010232646
:103F3000A4FE0327C4FE23A4E182EFF07FD903256A
:103F4000C4FEEFF05FE0EF2020020100F240624487
:103F500005618280411122C600080100010032443F
:103F600041018280011106CE22CC0010232604FEDE
:103F7000232404FE232604FE25A0232404FE39A0C6
:103F8000D13F832784FE85072324F4FE032784FE84
:103F9000C167E367F7FE8327C4FE85072326F4FE87
:103FA0000327C4FE9307F00FE3F9E7FC0100F2409A
:103FB000624405618280411122C60008010032443A
:103FC00041018280011106CE22CC00102326A4FEDE
:103FD0008325C4FE0945EFD03FE30100F24062446F
:103FE00005618280130101D923261126232481260D
:103FF00023229126801C232EA4D8232CB4D8232A34
:10400000C4D82328D4D8231504FE231404FE231374
:1040100004FE231204FE231104FE032584D9EFE0DD
:10402000B063AA87C207C1872313F4FEB7670020D5
:1040300083D7C7E299C7B76700209387C7E29C4B35
:10404000829783C7C18893F7F70F6385074EB767D9
:10405000002083D7C7E263890746B76700209387AC
:10406000C7E2D447835724FE13970701418793176C
:104070000701C1838507C207C183C207C187231116
:10408000F4FE93170701C1830326C4D9BE850145F9
:104090008296832784D92326F4FE032584D9EFE072
:1040A000B05BAA87C207C1872313F4FEB76700205D
:1040B0009387C7E283D727003E87B767002093879F
:1040C000C7E283C76700B347F702C207C18723125D
:1040D000F4FE01008327C4FE138717002326E4FEA5
:1040E00083870700E5FB231404FEA1A88327C4FEF1
:1040F000FD172326F4FE8327C4FE038707009307DA
:10410000F002630AF7008327C4FE038707009307C2
:10411000C005631BF700835784FEC207C183850770
:10412000C207C1832314F4FE835764FEC207C1870C
:10413000C207C183FD17C207C183C207C18723130A
:10414000F4FE835784FE139707014183854763E894
:10415000E700835764FEC207C187E3D907F8835796
:1041600064FEC207C18763C207028327C4FE8507B6
:104170002326F4FE130704EE0326C4FED9679385B5
:1041800007B03A85EFE0F0481DA8835784FEC207C8
:10419000C18381EF130704EE0326C4FED96793851C
:1041A000C7B03A85EFE0F04619A8130704EE0326DE
:1041B000C4FED967938507B03A85EFE09045231593
:1041C00004FE05A2231404FE59A0930704EE3E85C5
:1041D000EFE090482A87835784FEC207C183BE86DA
:1041E0008357A4FEC207C1833E86835744FEC2079D
:1041F000C187B307F602B6976367F706835784FE55
:10420000C207C1833E878357A4FEC207C183BE860F
:10421000835744FEC207C187B387F602BA97035794
:1042200084FE42074183BA86130704FFBA970387C7
:1042300007EF930704FFB6972388E7EA835784FEC6
:10424000C207C1838507C207C1832314F4FE8357C5
:1042500084FEC207C1833E87835744FEC207C187DD
:10426000E345F7F611A00100835784FEC207C1831E
:10427000130704FFBA97238807EAB76700209387DC
:10428000C7E203A8C700B76700209387C7E283C7C8
:104290007700139707014183835724FE9396070104
:1042A000C18693970601C1838507C207C183C207F0
:1042B000C1872311F4FE93970601C183B307F70268
:1042C000C207C183130704EA3A86BE8501450298F6
:1042D0008357A4FEC207C1838507C207C183231584
:1042E000F4FE8357A4FEC207C183BE84930704EE85
:1042F0003E85EFE070362A87835744FEC207C187A8
:10430000B357F7028507E3EFF4EA130704EE032639
:1043100044D9D9679385C7B13A85EFE0902FB76745
:1043200000209387C7E203A8C700B76700209387E0
:10433000C7E283C77700139707014183835724FEA1
:1043400093960701C18693970601C1838507C2072B
:10435000C183C207C1872311F4FE93970601C1836D
:10436000B307F702C207C183130704EE3A86BE857E
:1043700001450298832704D9638E071A231504FE8A
:1043800005A2231404FE59A0032504D9EFE0D02C84
:104390002A87835784FEC207C183BE868357A4FE43
:1043A000C207C1833E86835744FEC207C187B30755
:1043B000F602B6976368F706835784FEC207C18387
:1043C0003E878357A4FEC207C183BE86835744FE3F
:1043D000C207C187B387F602BA973E87832704D9FD
:1043E000BA97035784FE42074183BA8603870700C2
:1043F000930704FFB6972388E7EA835784FEC20732
:10440000C1838507C207C1832314F4FE835784FE4A
:10441000C207C1833E87835744FEC207C187E34575
:10442000F7F611A00100835784FEC207C18313076A
:1044300004FFBA97238807EAB76700209387C7E28B
:1044400003A8C700B76700209387C7E283C7770038
:10445000139707014183835724FE93960701C18672
:1044600093970601C1838507C207C183C207C1872D
:104470002311F4FE93970601C183B307F702C20725
:10448000C183130704EA3A86BE8501450298835723
:10449000A4FEC207C1838507C207C1832315F4FEAA
:1044A0008357A4FEC207C183BE84032504D9EFE06D
:1044B000B01A2A87835744FEC207C187B357F70251
:1044C0008507E3E0F4ECBDA0930704DA13060010BF
:1044D00081453E85EFB0DFD2B76700209387C7E202
:1044E0009C470325C4D98297832704D999CF130504
:1044F00004DA032704D9832644D9032684D9D9674B
:10450000938587B2EFE0F01029A8130704DA832619
:1045100044D9032684D9D967938547B43A85EFE017
:10452000500FB76700209387C7E29847930704DAD4
:104530003E85029701008320C1260324812683241F
:104540004126130101278280797106D622D40018F2
:10455000232EA4FC232CB4FC232AC4FC232604FE13
:10456000A9A00100D967938747CE9C479305000413
:104570003E85EF40F050AA87F5D7D967938747CE9D
:104580009C47BE86832784FD13871700232CE4FCF9
:1045900083870700C207C183BE853685EF40704B15
:1045A0008327C4FE85072326F4FE0327C4FE832742
:1045B00044FDE348F7FA832744FD3E85B250225478
:1045C00045618280011106CE22CC0010AA872324E7
:1045D000B4FE2322C4FEA307F4FE8347F4FEB1E336
:1045E00083C7C18293F7F70F8DCF83C7D18891C35B
:1045F00001A083C7D188850713F7F70FA386E18849
:10460000EF10D013EFF03F9B8146032644FE832535
:1046100084FED9671385C7B5EFF0DF9CEFF09F9458
:10462000E5B70100F240624405618280011106CEC7
:1046300022CC0010AA872324B4FE2322C4FE232008
:10464000D4FEA307F4FE8347F4FE95E383C7C18835
:1046500093F7F70F91CF832684FE032604FE83256C
:1046600044FED9671385C7B6EFF0DF9711A00100AC
:104670000100F240624405618280011122CE0010E7
:104680002326A4FE8327C4FE239007008327C4FEAD
:104690007D572391E7008327C4FE7D572392E700CF
:1046A0008327C4FE7D572383E7008327C4FE7D57FD
:1046B000A383E7008327C4FE23A407008327C4FE47
:1046C00023A607008327C4FE23A807000100724425
:1046D00005618280011122CE00102326A4FE8327CB
:1046E000C4FE03D70700B76700202396E7E28327BD
:1046F000C4FE03D72700B76700209387C7E2239142
:10470000E7008327C4FE03D74700B76700209387DD
:10471000C7E22392E7008327C4FE03C76700B76799
:1047200000209387C7E22383E7008327C4FE03C7E3
:104730007700B76700209387C7E2A383E70083274A
:10474000C4FE9847B76700209387C7E298C78327BE
:10475000C4FED847B76700209387C7E2D8C783272E
:10476000C4FE984BB76700209387C7E298CB0547F4
:104770002386E1880100724405618280797106D642
:1047800022D400189307C4FD3E85EFF01FEFB74712
:104790000000938747FC2322F4FE9307C4FD3E8567
:1047A000EFF05FF389679386B70289671386A702E4
:1047B000F167938507200945EFD02FF99306000490
:1047C000B7670020138607DD8145B7670020138592
:1047D00007E1EF10003D85450945EFD0EFE8010006
:1047E000B250225445618280011122CE001023264E
:1047F000A4FE2324B4FE8327C4FE03C7970083C608
:10480000A700A206558F83C6B700C206558F83C77F
:10481000C700E207D98F3E87832784FE3E97832710
:10482000C4FE9375F70F83C69700818A3686AE86DD
:10483000D18EA384D7009356870093F5F60F83C6D5
:10484000A700818A3686AE86D18E2385D7009356FF
:10485000070193F5F60F83C6B700818A3686AE86C8
:10486000D18EA385D7001356870103C7C700018BDC
:10487000BA863287558F2386E70055A08327C4FE6A
:1048800003C7970083C6A700A206558F83C6B7004B
:10489000C206558F83C7C700E207D98F3E8683279C
:1048A000C4FE03C7570183C66701A206558F83C69E
:1048B0007701C206558F83C78701E207D98F330777
:1048C000F6408327C4FE9375F70F83C69700818A4D
:1048D0003686AE86D18EA384D7009356870093F593
:1048E000F60F83C6A700818A3686AE86D18E2385D1
:1048F000D7009356070193F5F60F83C6B700818A58
:104900003686AE86D18EA385D7001356870103C79E
:10491000C700018BBA863287558F2386E70083272D
:10492000C4FE03C7570183C66701A206558F83C61D
:104930007701C206558F83C78701E207D98F3E866C
:104940008327C4FE03C7970083C6A700A206558F1E
:1049500083C6B700C206558F83C7C700E207D98F49
:10496000E3FEC7F00100724405618280011122CE8E
:1049700000102326A4FE2324B4FE8327C4FE03C70D
:10498000D70083C6E700A206558F83C6F700C2068C
:10499000558F83C70701E207D98F3E87832784FE9F
:1049A0003E978327C4FE9375F70F83C6D700818A8D
:1049B0003686AE86D18EA386D7009356870093F5B0
:1049C000F60F83C6E700818A3686AE86D18E2387AE
:1049D000D7009356070193F5F60F83C6F700818A37
:1049E0003686AE86D18EA387D7001356870103C7BC
:1049F0000701018BBA863287558F2388E70055A0BF
:104A00008327C4FE03C7D70083C6E700A206558FDD
:104A100083C6F700C206558F83C70701E207D98F07
:104A20003E868327C4FE03C7570183C66701A206DB
:104A3000558F83C67701C206558F83C78701E2076A
:104A4000D98F3307F6408327C4FE9375F70F83C6CB
:104A5000D700818A3686AE86D18EA386D70093563C
:104A6000870093F5F60F83C6E700818A3686AE8607
:104A7000D18E2387D7009356070193F5F60F83C68F
:104A8000F700818A3686AE86D18EA387D70013566B
:104A9000870103C70701018BBA863287558F2388A8
:104AA000E7008327C4FE03C7570183C66701A20638
:104AB000558F83C67701C206558F83C78701E207EA
:104AC000D98F3E868327C4FE03C7D70083C6E7007D
:104AD000A206558F83C6F700C206558F83C707010C
:104AE000E207D98FE3FEC7F00100724405618280BE
:104AF000797106D622D40018232EA4FC8327C4FD86
:104B0000B337F00093F7F70F3E8713065005D967C8
:104B1000938587B73A85EFF0FFAA232604FE832703
:104B2000C4FD83C7070093E7170013F7F70F832728
:104B3000C4FD2380E7008327C4FD03C79700018BD2
:104B4000A384E70003C7A700018B2385E70003C701
:104B5000B700018BA385E70003C7C700018B23863D
:104B6000E7008327C4FD03C7D700018BA386E700B6
:104B700003C7E700018B2387E70003C7F700018B1A
:104B8000A387E70003C70701018B2388E70083277A
:104B9000C4FD03C7570183C66701A206558F83C6AC
:104BA0007701C206558F83C78701E207D98F3E87F9
:104BB0008327C4FD9375F70F83C61701818A368654
:104BC000AE86D18EA388D7009356870093F5F60F53
:104BD00083C62701818A3686AE86D18E2389D70087
:104BE0009356070193F5F60F83C63701818A3686FF
:104BF000AE86D18EA389D7001356870103C747011C
:104C0000018BBA863287558F238AE7008327C4FD3C
:104C100003C7170083C62700A206558F83C6370037
:104C2000C206558F83C74700E207D98F0547638DBA
:104C3000E70489C709476380E70AEDA08327C4FD1D
:104C400003C7570083C66700A206558F83C6770047
:104C5000C206558F83C78700E207D98F3E85832719
:104C6000C4FD03C7570183C66701A206558F83C6DB
:104C70007701C206558F83C78701E207D98F3E8629
:104C80008145EFB0EFD779A88327C4FD03C757004C
:104C900083C66700A206558F83C67700C206558F6C
:104CA00083C78700E207D98F3E858327C4FD03C7EA
:104CB000570183C66701A206558F83C67701C206D6
:104CC000558F83C78701E207D98F86073E868145C6
:104CD000EFB00FD381A88327C4FD03C7570083C655
:104CE0006700A206558F83C67700C206558F83C71B
:104CF0008700E207D98F3E858327C4FD03C757018C
:104D000083C66701A206558F83C67701C206558FF9
:104D100083C78701E207D98F8A073E868145EFB0B6
:104D20002FCE01008327C4FD238007008327C4FE04
:104D30003E85B250225445618280011106CE22CCBC
:104D400000102326A4FE8327C4FEB337F00093F798
:104D5000F70F3E8713066007D967938587B73A85B3
:104D6000EFF05F868327C4FE03C7570183C6670140
:104D7000A206558F83C67701C206558F83C7870168
:104D8000E207D98F3E868327C4FE03C7170183C677
:104D90002701A206558F83C63701C206558F83C7E8
:104DA0004701E207D98FB307F6403E85F2406244DF
:104DB00005618280797106D622D40018232EA4FCC6
:104DC000232CB4FC8327C4FDB337F00093F7F70F0F
:104DD0003E8713064008D967938587B73A85EFF079
:104DE0006FFE232604FE8327C4FD83C70700958B2F
:104DF00093F7F70F89C791472326F4FE29A4832749
:104E0000C4FD83C7070093E7470013F7F70F832715
:104E1000C4FD2380E7008327C4FD03C7170183C6B1
:104E20002701A206558F83C63701C206558F83C757
:104E30004701E207D98F638A071A8327C4FD03C796
:104E4000170083C62700A206558F83C63700C20607
:104E5000558F83C74700E207D98F05476380E70670
:104E600089C709476386E70ADDA88327C4FD03C70E
:104E7000570083C66700A206558F83C67700C20617
:104E8000558F83C78700E207D98F3E868327C4FDED
:104E900003C7970083C6A700A206558F83C6B70035
:104EA000C206558F83C7C700E207D98FB297032781
:104EB00084FD1377F70F2380E70055A08327C4FDF7
:104EC00003C7570083C66700A206558F83C67700C5
:104ED000C206558F83C78700E207D98F3E86832796
:104EE000C4FD03C7970083C6A700A206558F83C6DB
:104EF000B700C206558F83C7C700E207D98F860760
:104F0000B297032784FD420741832390E70081A8DD
:104F10008327C4FD03C7570083C66700A206558FC9
:104F200083C67700C206558F83C78700E207D98FF3
:104F30003E868327C4FD03C7970083C6A700A20649
:104F4000558F83C6B700C206558F83C7C700E207D7
:104F5000D98F8A07B297032784FD98C3010085453E
:104F60000325C4FDEFF05F888327C4FD03C7170145
:104F700083C62701A206558F83C63701C206558F07
:104F800083C74701E207D98F1387F7FF8327C4FD43
:104F90009375F70F83C61701818A3686AE86D18E48
:104FA000A388D7009356870093F5F60F83C6270191
:104FB000818A3686AE86D18E2389D7009356070123
:104FC00093F5F60F83C63701818A3686AE86D18E79
:104FD000A389D7001356870103C74701018BBA86FF
:104FE0003287558F238AE70021A095472326F4FEB8
:104FF0008327C4FD83C70700ED9B13F7F70F8327B3
:10500000C4FD2380E7008327C4FE3E85B2502254AE
:1050100045618280797106D622D40018232EA4FC23
:10502000232CB4FC232AC4FC8327C4FDB337F0002F
:1050300093F7F70F3E871306000BD967938587B761
:105040003A85EFF02FD8232604FE232404FE83277D
:1050500084FD89E78D472326F4FE59AB8327C4FDE1
:1050600083C70700958B93F7F70F89C791472326CE
:10507000F4FEBDAB8327C4FD83C7070093E7470059
:1050800013F7F70F8327C4FD2380E7008327C4FDB0
:1050900003C7170183C62701A206558F83C63701B0
:1050A000C206558F83C74701E207D98F3E87832702
:1050B00044FD6361F7528327C4FD03C7570183C6CC
:1050C0006701A206558F83C67701C206558F83C735
:1050D0008701E207D98F3E868327C4FD03C7970067
:1050E00083C6A700A206558F83C6B700C206558F98
:1050F00083C7C700E207D98FB307F6402324F4FE25
:10510000032744FD832784FE63F3E72E8327C4FD32
:1051100003C7170083C62700A206558F83C6370032
:10512000C206558F83C74700E207D98F05476385BD
:10513000E70E89C709476386E71C11A98327C4FDC9
:1051400003C7570083C66700A206558F83C6770042
:10515000C206558F83C78700E207D98F3E86832713
:10516000C4FD03C7970083C6A700A206558F83C658
:10517000B700C206558F83C7C700E207D98FB29721
:10518000032684FE832584FD3E85EFC0707E832543
:1051900084FE0325C4FDEFF02FE58327C4FD03C77C
:1051A000570083C66700A206558F83C67700C206E4
:1051B000558F83C78700E207D98F3E868327C4FDBA
:1051C00003C7970083C6A700A206558F83C6B70002
:1051D000C206558F83C7C700E207D98FB306F60012
:1051E000032784FD832784FEB305F700032744FDCE
:1051F000832784FEB307F7403E863685EFC050779D
:10520000032744FD832784FEB307F740BE850325AB
:10521000C4FDEFF06FDD25AE8327C4FD03C7570043
:1052200083C66700A206558F83C67700C206558FD6
:1052300083C78700E207D98F3E868327C4FD03C753
:10524000970083C6A700A206558F83C6B700C20683
:10525000558F83C7C700E207D98F86073307F6004B
:10526000832784FE86073E86832584FD3A85EFC02A
:105270003070832584FE0325C4FDEFF0EFD683272D
:10528000C4FD03C7570083C66700A206558F83C6B7
:105290007700C206558F83C78700E207D98F3E8605
:1052A0008327C4FD03C7970083C6A700A206558FB6
:1052B00083C6B700C206558F83C7C700E207D98FE0
:1052C0008607B306F600832784FE8607032784FD3E
:1052D000B305F700032744FD832784FEB307F74097
:1052E00086073E863685EFC0B068032744FD8327D6
:1052F00084FEB307F740BE850325C4FDEFF0CFCE93
:10530000B9A48327C4FD03C7570083C66700A2065C
:10531000558F83C67700C206558F83C78700E20783
:10532000D98F3E868327C4FD03C7970083C6A70095
:10533000A206558F83C6B700C206558F83C7C70024
:10534000E207D98F8A073307F600832784FE8A078E
:105350003E86832584FD3A85EFC09061832584FED7
:105360000325C4FDEFF04FC88327C4FD03C75700D2
:1053700083C66700A206558F83C67700C206558F85
:1053800083C78700E207D98F3E868327C4FD03C702
:10539000970083C6A700A206558F83C6B700C20632
:1053A000558F83C7C700E207D98F8A07B306F60077
:1053B000832784FE8A07032784FDB305F7000327AC
:1053C00044FD832784FEB307F7408A073E8636856F
:1053D000EFC0105A032744FD832784FEB307F7402C
:1053E000BE850325C4FDEFF02FC001008DA28327E9
:1053F000C4FD03C7170083C62700A206558F83C6C6
:105400003700C206558F83C74700E207D98F05478B
:105410006387E70689C709476387E70C0DAA8327D7
:10542000C4FD03C7570083C66700A206558F83C615
:105430007700C206558F83C78700E207D98F3E8663
:105440008327C4FD03C7970083C6A700A206558F14
:1054500083C6B700C206558F83C7C700E207D98F3E
:10546000B297032644FD832584FD3E85EFC050504E
:10547000832544FD0325C4FDEFF00FB7C9A883279A
:10548000C4FD03C7570083C66700A206558F83C6B5
:105490007700C206558F83C78700E207D98F3E8603
:1054A0008327C4FD03C7970083C6A700A206558FB4
:1054B00083C6B700C206558F83C7C700E207D98FDE
:1054C00086073307F600832744FD86073E8683253B
:1054D00084FD3A85EFC0D049832544FD0325C4FDF2
:1054E000EFF08FB0ADA08327C4FD03C7570083C67C
:1054F0006700A206558F83C67700C206558F83C703
:105500008700E207D98F3E868327C4FD03C7970033
:1055100083C6A700A206558F83C6B700C206558F63
:1055200083C7C700E207D98F8A073307F6008327AE
:1055300044FD8A073E86832584FD3A85EFC05043AB
:10554000832544FD0325C4FDEFF00FAA0100832746
:10555000C4FD03C7170183C62701A206558F83C662
:105560003701C206558F83C74701E207D98F3E87AF
:10557000832744FD1D8F8327C4FD9375F70F83C6D2
:105580001701818A3686AE86D18EA388D7009356BE
:10559000870093F5F60F83C62701818A3686AE868B
:1055A000D18E2389D7009356070193F5F60F83C652
:1055B0003701818A3686AE86D18EA389D7001356ED
:1055C000870103C74701018BBA863287558F238A2B
:1055D000E70021A095472326F4FE8327C4FD83C757
:1055E0000700ED9B13F7F70F8327C4FD2380E70027
:1055F0008327C4FE3E85B250225445618280797172
:1056000006D622D40018232EA4FC232CB4FC232A73
:10561000C4FC2328D4FC8327C4FDB337F00093F7E0
:10562000F70F3E8713061016D967938587B73A851B
:10563000EFE05FF9832744FDB337F00093F7F70FEE
:105640003E8713062016D967938587B73A85EFE022
:105650007FF7232604FE232404FE232204FE83274F
:1056600084FD89E78D472326F4FEA9A18327C4FD85
:1056700083C707008D8B93F7F70F91CB832744FDEA
:10568000032744FE98C399472326F4FE21A303254C
:10569000C4FDEFF08FEA2322A4FE832744FD9C4340
:1056A000032744FE6379F702832744FD032744FE62
:1056B00098C39D472326F4FE832744FE89EF832762
:1056C000C4FD83C70700DD9B13F7F70F8327C4FDD5
:1056D0002380E700C1A18327C4FD83C7070093E7A8
:1056E000870013F7F70F8327C4FD2380E700832784
:1056F000C4FD03C7570183C66701A206558F83C641
:105700007701C206558F83C78701E207D98F3E868E
:105710008327C4FD03C7D70083C6E700A206558FC1
:1057200083C6F700C206558F83C70701E207D98FEA
:10573000B307F6402324F4FE832744FD9C4303274C
:1057400084FE6366F7148327C4FD03C7170083C66E
:105750002700A206558F83C63700C206558F83C720
:105760004700E207D98F05476384E70689C70947E1
:10577000638FE70A2DA68327C4FD03C7570083C69E
:105780006700A206558F83C67700C206558F83C770
:105790008700E207D98F3E868327C4FD03C7D70061
:1057A00083C6E700A206558F83C6F700C206558F51
:1057B00083C70701E207D98F3307F600832744FD2B
:1057C0009C433E86BA85032584FDEFC0701AC1ACA8
:1057D0008327C4FD03C7570083C66700A206558F01
:1057E00083C67700C206558F83C78700E207D98F2B
:1057F0003E868327C4FD03C7D70083C6E700A20601
:10580000558F83C6F700C206558F83C70701E2078D
:10581000D98F86073307F600832744FD9C4386070C
:105820003E86BA85032584FDEFC090148DAC832796
:10583000C4FD03C7570083C66700A206558F83C601
:105840007700C206558F83C78700E207D98F3E864F
:105850008327C4FD03C7D70083C6E700A206558F80
:1058600083C6F700C206558F83C70701E207D98FA9
:105870008A073307F600832744FD9C438A073E8648
:10588000BA85032584FDEFC0B00E010009AC832763
:10589000C4FD03C7170083C62700A206558F83C621
:1058A0003700C206558F83C74700E207D98F0547E7
:1058B0006383E70A89C709476381E714CDA2832779
:1058C000C4FD03C7570083C66700A206558F83C671
:1058D0007700C206558F83C78700E207D98F3E86BF
:1058E0008327C4FD03C7D70083C6E700A206558FF0
:1058F00083C6F700C206558F83C70701E207D98F19
:10590000B297032684FEBE85032584FDEFC05006B2
:10591000032784FD832784FE3305F7008327C4FD16
:1059200003C7570083C66700A206558F83C677005A
:10593000C206558F83C78700E207D98FBE868327AB
:1059400044FD9843832784FEB307F7403E86B6851F
:10595000EFC01002A9A28327C4FD03C7570083C666
:105960006700A206558F83C67700C206558F83C78E
:105970008700E207D98F3E868327C4FD03C7D7007F
:1059800083C6E700A206558F83C6F700C206558F6F
:1059900083C70701E207D98F86073307F6008327FD
:1059A00084FE86073E86BA85032584FDEFC0407CD1
:1059B000832784FE8607032784FD3305F7008327AA
:1059C000C4FD03C7570083C66700A206558F83C670
:1059D0007700C206558F83C78700E207D98FBE863E
:1059E000832744FD9843832784FEB307F740860747
:1059F0003E86B685EFC0C0775DA08327C4FD03C790
:105A0000570083C66700A206558F83C67700C2067B
:105A1000558F83C78700E207D98F3E868327C4FD51
:105A200003C7D70083C6E700A206558F83C6F700D9
:105A3000C206558F83C70701E207D98F8A0733074C
:105A4000F600832784FE8A073E86BA85032584FDF7
:105A5000EFC00072832784FE8A07032784FD330585
:105A6000F7008327C4FD03C7570083C66700A2065B
:105A7000558F83C67700C206558F83C78700E2071C
:105A8000D98FBE86832744FD9843832784FEB307BE
:105A9000F7408A073E86B685EFC0806D01008327F8
:105AA000C4FD83C70700DD9B13F7F70F8327C4FDF1
:105AB0002380E700832704FDF1EF8327C4FD03C79C
:105AC0000700AD476316F70089472326F4FED9A0E7
:105AD0008327C4FD83C7070093E7270013F7F70F59
