:100000006F90900413000000130000001300000024
:100010001300000013000000130000001300000094
:100020001300000013000000130000001300000084
:08003000130000007300100032
:100038000000000000000000D6160000E6160000D0
:10004800000000008E970000000000000000000083
:100058009097000092970000000000000000000048
:100068009497000000000000969700000000000030
:10007800989700009A9700009C9700009E970000B0
:10008800A0970000A29700009C090000500A0000F9
:10009800040B0000B80B00006C0C0000AE970000C9
:1000A800B0970000B2970000B4970000B697000020
:1000B800B8970000BA970000BC970000BE970000F0
:1000C800C0970000C2970000C4970000200D0000F0
:1000D800C89700006A0F0000CC970000CE97000078
:1000E8002A100000E6100000A6110000D6970000B4
:1000F800D8970000DA970000DC970000DE97000030
:10010800E0970000A80200006C0300003004000023
:10011800380E0000EA970000EC970000EE97000008
:100128009E140000F2970000F4970000F697000074
:10013800F8970000FA97000066120000FE9700008A
:10014800F8040000BC05000026130000DE130000C0
:10015800089800000A9800000C9800000E9800000B
:1001680010980000129800001498000016980000DB
:10017800189800001A9800001C98000066B6000045
:100188002098000022980000CC0800007E0600009D
:10019800420700000C0800002C9800005E150000C3
:1001A8003098000032980000349800001E160000B5
:1001B800389800003A9800003C9800003E980000EB
:1001C80040980000429800004498000046980000BB
:1001D8000000000000000000000000000000000017
:1001E8000000000000000000000000000000000007
:0801F8000000000000000000FF
:100200003D432A876373C3029377F700BDEFADE5E3
:10021000937606FF3D8ABA960CC34CC30CC74CC7F5
:100220004107E36BD7FE11E28280B306C3408A0622
:100230009702000096966780A6002307B700A306E2
:10024000B7002306B700A305B7002305B700A30432
:10025000B7002304B700A303B7002303B700A3022A
:10026000B7002302B700A301B7002301B700A30022
:10027000B7002300B700828093F5F50F93968500B1
:10028000D58D93960501D58D61B79396270097027A
:10029000000096968682E78086FA9680C1171D8FA9
:1002A0003E96E374C3F8A5B7357106CF16CD1ACBC9
:1002B0001EC922C72AC52EC332C1B6DEBADCBEDAD9
:1002C000C2D8C6D6F2D4F6D2FAD0FECE82E686E402
:1002D0008AE28EE012FE16FC1AFA1EF82AF62EF4B6
:1002E00032F236F03AEE3EEC42EA46E872E676E466
:1002F0007AE27EE0001193055052B7470140138522
:100300000780EFB0C00CAA8789CB93055052B7473E
:10031000014013850780EFB0A01B0100FA40EA42BC
:100320005A43CA433A442A459A450A46F6566657FE
:10033000D6574658B658265E965E065FF64F36602C
:10034000A660166186617272E2725273C273327570
:10035000A275127682767267E2675268C268326E60
:10036000A26E126F826F0D6173002030357106CF5F
:1003700016CD1ACB1EC922C72AC52EC332C1B6DE7E
:10038000BADCBEDAC2D8C6D6F2D4F6D2FAD0FECEE5
:1003900082E686E48AE28EE012FE16FC1AFA1EF865
:1003A0002AF62EF432F236F03AEE3EEC42EA46E815
:1003B00072E676E47AE27EE0001193055052B74788
:1003C000004013850740EFB08000AA8789CB9305D2
:1003D0005052B747004013850740EFB0600F01004F
:1003E000FA40EA425A43CA433A442A459A450A46E1
:1003F000F6566657D6574658B658265E965E065F3E
:10040000F64F3660A660166186617272E2725273B0
:10041000C2733275A275127682767267E26752688D
:10042000C268326EA26E126F826F0D61730020304F
:10043000357106CF16CD1ACB1EC922C72AC52EC3C9
:1004400032C1B6DEBADCBEDAC2D8C6D6F2D4F6D233
:10045000FAD0FECE82E686E48AE28EE012FE16FC38
:100460001AFA1EF82AF62EF432F236F03AEE3EEC84
:1004700042EA46E872E676E47AE27EE0001193050D
:100480005052B757004013850780EFA05074AA87D9
:1004900099CBEF70C01693055052B75700401385A3
:1004A0000780EFB0E0020100FA40EA425A43CA4333
:1004B0003A442A459A450A46F6566657D65746584C
:1004C000B658265E965E065FF64F3660A6601661E9
:1004D00086617272E2725273C2733275A2751276BD
:1004E00082767267E2675268C268326EA26E126FDD
:1004F000826F0D6173002030357106CF16CD1ACB97
:100500001EC922C72AC52EC332C1B6DEBADCBEDA86
:10051000C2D8C6D6F2D4F6D2FAD0FECE82E686E4AF
:100520008AE28EE012FE16FC1AFA1EF82AF62EF463
:1005300032F236F03AEE3EEC42EA46E872E676E413
:100540007AE27EE0001193055052B75700401385C0
:1005500007C0EFA0D067AA8789CB93055052B75741
:100560000040138507C0EFA0B0760100FA40EA42D0
:100570005A43CA433A442A459A450A46F6566657AC
:10058000D6574658B658265E965E065FF64F3660DA
:10059000A660166186617272E2725273C27332751E
:1005A000A275127682767267E2675268C268326E0E
:1005B000A26E126F826F0D6173002030357106CF0D
:1005C00016CD1ACB1EC922C72AC52EC332C1B6DE2C
:1005D000BADCBEDAC2D8C6D6F2D4F6D2FAD0FECE93
:1005E00082E686E48AE28EE012FE16FC1AFA1EF813
:1005F0002AF62EF432F236F03AEE3EEC42EA46E8C3
:1006000072E676E47AE27EE00011930550523755A7
:100610000040EFA0D05BAA8791CB83A7818182970E
:100620009305505237550040EFA0906A0100FA4000
:10063000EA425A43CA433A442A459A450A46F6567C
:100640006657D6574658B658265E965E065FF64FF2
:100650003660A660166186617272E2725273C2736E
:100660003275A275127682767267E2675268C26846
:10067000326EA26E126F826F0D6173002030357181
:1006800006CF16CD1ACB1EC922C72AC52EC332C12A
:10069000B6DEBADCBEDAC2D8C6D6F2D4F6D2FAD00A
:1006A000FECE82E686E48AE28EE012FE16FC1AFA9C
:1006B0001EF82AF62EF432F236F03AEE3EEC42EA1A
:1006C00046E872E676E47AE27EE000119305505245
:1006D000B727004013850780EFA0704FAA8789CB0A
:1006E00093055052B727004013850780EFA0505E56
:1006F0000100FA40EA425A43CA433A442A459A451D
:100700000A46F6566657D6574658B658265E965E3F
:10071000065FF64F3660A660166186617272E272FD
:100720005273C2733275A275127682767267E2676F
:100730005268C268326EA26E126F826F0D617300D2
:100740002030357106CF16CD1ACB1EC922C72AC557
:100750002EC332C1B6DEBADCBEDAC2D8C6D6F2D4F7
:10076000F6D2FAD0FECE82E686E48AE28EE012FE6F
:1007700016FC1AFA1EF82AF62EF432F236F03AEE89
:100780003EEC42EA46E872E676E47AE27EE0001168
:1007900093055052B7270040138507C0EFA03043A0
:1007A000AA8781CF83A70182829793055052B727EA
:1007B0000040138507C0EFA0B0510100FA40EA42A3
:1007C0005A43CA433A442A459A450A46F65666575A
:1007D000D6574658B658265E965E065FF64F366088
:1007E000A660166186617272E2725273C2733275CC
:1007F000A275127682767267E2675268C268326EBC
:10080000A26E126F826F0D6173002030357106CFBA
:1008100016CD1ACB1EC922C72AC52EC332C1B6DED9
:10082000BADCBEDAC2D8C6D6F2D4F6D2FAD0FECE40
:1008300082E686E48AE28EE012FE16FC1AFA1EF8C0
:100840002AF62EF432F236F03AEE3EEC42EA46E870
:1008500072E676E47AE27EE0001193055052372585
:100860000040EFA0D036AA8789CBEF303036930511
:10087000505237250040EFA0B0450100FA40EA424F
:100880005A43CA433A442A459A450A46F656665799
:10089000D6574658B658265E965E065FF64F3660C7
:1008A000A660166186617272E2725273C27332750B
:1008B000A275127682767267E2675268C268326EFB
:1008C000A26E126F826F0D6173002030357106CFFA
:1008D00016CD1ACB1EC922C72AC52EC332C1B6DE19
:1008E000BADCBEDAC2D8C6D6F2D4F6D2FAD0FECE80
:1008F00082E686E48AE28EE012FE16FC1AFA1EF800
:100900002AF62EF432F236F03AEE3EEC42EA46E8AF
:1009100072E676E47AE27EE00011B707055083C7FD
:10092000070193F7F70F918B8DC383A7C18182973E
:10093000B707055083C7070113F7F70FB70705502F
:100940006D9B1377F70F2388E7000100FA40EA4216
:100950005A43CA433A442A459A450A46F6566657C8
:10096000D6574658B658265E965E065FF64F3660F6
:10097000A660166186617272E2725273C27332753A
:10098000A275127682767267E2675268C268326E2A
:10099000A26E126F826F0D6173002030357106CF29
:1009A00016CD1ACB1EC922C72AC52EC332C1B6DE48
:1009B000BADCBEDAC2D8C6D6F2D4F6D2FAD0FECEAF
:1009C00082E686E48AE28EE012FE16FC1AFA1EF82F
:1009D0002AF62EF432F236F03AEE3EEC42EA46E8DF
:1009E00072E676E47AE27EE000110545EF80706EF3
:1009F0002A8785476315F7000545EF80F0720100EF
:100A0000FA40EA425A43CA433A442A459A450A46BA
:100A1000F6566657D6574658B658265E965E065F17
:100A2000F64F3660A660166186617272E27252738A
:100A3000C2733275A275127682767267E267526867
:100A4000C268326EA26E126F826F0D617300203029
:100A5000357106CF16CD1ACB1EC922C72AC52EC3A3
:100A600032C1B6DEBADCBEDAC2D8C6D6F2D4F6D20D
:100A7000FAD0FECE82E686E48AE28EE012FE16FC12
:100A80001AFA1EF82AF62EF432F236F03AEE3EEC5E
:100A900042EA46E872E676E47AE27EE00011094531
:100AA000EF8030632A8785476315F7000945EF809B
:100AB000B0670100FA40EA425A43CA433A442A4521
:100AC0009A450A46F6566657D6574658B658265E91
:100AD000965E065FF64F3660A6601661866172729A
:100AE000E2725273C2733275A275127682767267A1
:100AF000E2675268C268326EA26E126F826F0D6139
:100B000073002030357106CF16CD1ACB1EC922C70F
:100B10002AC52EC332C1B6DEBADCBEDAC2D8C6D60A
:100B2000F2D4F6D2FAD0FECE82E686E48AE28EE0F5
:100B300012FE16FC1AFA1EF82AF62EF432F236F0DD
:100B40003AEE3EEC42EA46E872E676E47AE27EE08D
:100B500000111145EF80F0572A8785476315F7008C
:100B60001145EF80705C0100FA40EA425A43CA43E3
:100B70003A442A459A450A46F6566657D657465885
:100B8000B658265E965E065FF64F3660A660166122
:100B900086617272E2725273C2733275A2751276F6
:100BA00082767267E2675268C268326EA26E126F16
:100BB000826F0D6173002030357106CF16CD1ACBD0
:100BC0001EC922C72AC52EC332C1B6DEBADCBEDAC0
:100BD000C2D8C6D6F2D4F6D2FAD0FECE82E686E4E9
:100BE0008AE28EE012FE16FC1AFA1EF82AF62EF49D
:100BF00032F236F03AEE3EEC42EA46E872E676E44D
:100C00007AE27EE000112145EF80B04C2A878547CB
:100C10006315F7002145EF8030510100FA40EA42A8
:100C20005A43CA433A442A459A450A46F6566657F5
:100C3000D6574658B658265E965E065FF64F366023
:100C4000A660166186617272E2725273C273327567
:100C5000A275127682767267E2675268C268326E57
:100C6000A26E126F826F0D6173002030357106CF56
:100C700016CD1ACB1EC922C72AC52EC332C1B6DE75
:100C8000BADCBEDAC2D8C6D6F2D4F6D2FAD0FECEDC
:100C900082E686E48AE28EE012FE16FC1AFA1EF85C
:100CA0002AF62EF432F236F03AEE3EEC42EA46E80C
:100CB00072E676E47AE27EE000114145EF80704111
:100CC0002A8785476315F7004145EF80F04501000D
:100CD000FA40EA425A43CA433A442A459A450A46E8
:100CE000F6566657D6574658B658265E965E065F45
:100CF000F64F3660A660166186617272E2725273B8
:100D0000C2733275A275127682767267E267526894
:100D1000C268326EA26E126F826F0D617300203056
:100D2000357106CF16CD1ACB1EC922C72AC52EC3D0
:100D300032C1B6DEBADCBEDAC2D8C6D6F2D4F6D23A
:100D4000FAD0FECE82E686E48AE28EE012FE16FC3F
:100D50001AFA1EF82AF62EF432F236F03AEE3EEC8B
:100D600042EA46E872E676E47AE27EE00011130594
:100D70000002EF8010362A8785476316F7001305B7
:100D80000002EF80703A13050004EF8090342A8748
:100D900085476316F70013050004EF80F03813054C
:100DA0000008EF8010332A8785476316F700130584
:100DB0000008EF80703713050010EF8090312A870C
:100DC00085476316F70013050010EF80F035130513
:100DD0000020EF8010302A8785476316F70013053F
:100DE0000020EF8070340100FA40EA425A43CA43BF
:100DF0003A442A459A450A46F6566657D657465803
:100E0000B658265E965E065FF64F3660A66016619F
:100E100086617272E2725273C2733275A275127673
:100E200082767267E2675268C268326EA26E126F93
:100E3000826F0D6173002030357106CF16CD1ACB4D
:100E40001EC922C72AC52EC332C1B6DEBADCBEDA3D
:100E5000C2D8C6D6F2D4F6D2FAD0FECE82E686E466
:100E60008AE28EE012FE16FC1AFA1EF82AF62EF41A
:100E700032F236F03AEE3EEC42EA46E872E676E4CA
:100E80007AE27EE0001113050040EF8090242A876B
:100E900085476316F70013050040EF80F02885674B
:100EA00013850780EF80F0222A8785476317F700B4
:100EB000856713850780EF8030270565EF807021F7
:100EC0002A8785476315F7000565EF80F0250965DA
:100ED000EF8030202A8785476318F70083A7418277
:100EE00082970965EF8050241165EF80901E2A8754
:100EF00085476317F700EF30404A1165EF80D02235
:100F00002165EF80101D2A8785476317F700EF30B2
:100F100060392165EF8050210100FA40EA425A43CE
:100F2000CA433A442A459A450A46F6566657D65762
:100F30004658B658265E965E065FF64F3660A66047
:100F4000166186617272E2725273C2733275A27553
:100F5000127682767267E2675268C268326EA26E5B
:100F6000126F826F0D6173002030357106CF16CD80
:100F70001ACB1EC922C72AC52EC332C1B6DEBADCBF
:100F8000BEDAC2D8C6D6F2D4F6D2FAD0FECE82E607
:100F900086E48AE28EE012FE16FC1AFA1EF82AF6A1
:100FA0002EF432F236F03AEE3EEC42EA46E872E6D1
:100FB00076E47AE27EE000118545B737014013857B
:100FC00007C0EF90307AAA8781CB8545B7370140BB
:100FD000138507C0EFA000000100FA40EA425A431F
:100FE000CA433A442A459A450A46F6566657D657A2
:100FF0004658B658265E965E065FF64F3660A66087
:10100000166186617272E2725273C2733275A27592
:10101000127682767267E2675268C268326EA26E9A
:10102000126F826F0D6173002030357106CF16CDBF
:101030001ACB1EC922C72AC52EC332C1B6DEBADCFE
:10104000BEDAC2D8C6D6F2D4F6D2FAD0FECE82E646
:1010500086E48AE28EE012FE16FC1AFA1EF82AF6E0
:101060002EF432F236F03AEE3EEC42EA46E872E610
:1010700076E47AE27EE00011854537050040EF9086
:10108000706EAA8781CB854537050040EF9090743C
:10109000EF00B00E0100FA40EA425A43CA433A4414
:1010A0002A459A450A46F6566657D6574658B658C0
:1010B000265E965E065FF64F3660A6601661866114
:1010C0007272E2725273C2733275A27512768276B0
:1010D0007267E2675268C268326EA26E126F826FE8
:1010E0000D6173002030357106CF16CD1ACB1EC9A5
:1010F00022C72AC52EC332C1B6DEBADCBEDAC2D8D8
:10110000C6D6F2D4F6D2FAD0FECE82E686E48AE2E1
:101110008EE012FE16FC1AFA1EF82AF62EF432F2AF
:1011200036F03AEE3EEC42EA46E872E676E47AE2DF
:101130007EE000118545B707004013850740EF901A
:101140007062AA8781CB8545B707004013850740A9
:10115000EF9050680100FA40EA425A43CA433A44C9
:101160002A459A450A46F6566657D6574658B658FF
:10117000265E965E065FF64F3660A6601661866153
:101180007272E2725273C2733275A27512768276EF
:101190007267E2675268C268326EA26E126F826F27
:1011A0000D6173002030357106CF16CD1ACB1EC9E4
:1011B00022C72AC52EC332C1B6DEBADCBEDAC2D817
:1011C000C6D6F2D4F6D2FAD0FECE82E686E48AE221
:1011D0008EE012FE16FC1AFA1EF82AF62EF432F2EF
:1011E00036F03AEE3EEC42EA46E872E676E47AE21F
:1011F0007EE000118545B717004013850780EF900A
:101200007056AA8781CB8545B717004013850780A4
:10121000EF90505C0100FA40EA425A43CA433A4414
:101220002A459A450A46F6566657D6574658B6583E
:10123000265E965E065FF64F3660A6601661866192
:101240007272E2725273C2733275A275127682762E
:101250007267E2675268C268326EA26E126F826F66
:101260000D6173002030357106CF16CD1ACB1EC923
:1012700022C72AC52EC332C1B6DEBADCBEDAC2D856
:10128000C6D6F2D4F6D2FAD0FECE82E686E48AE260
:101290008EE012FE16FC1AFA1EF82AF62EF432F22E
:1012A00036F03AEE3EEC42EA46E872E676E47AE25E
:1012B0007EE000118545B7170040138507C0EF9009
:1012C000704AAA8781CB8545B7170040138507C0B0
:1012D000EF9050500100FA40EA425A43CA433A4460
:1012E0002A459A450A46F6566657D6574658B6587E
:1012F000265E965E065FF64F3660A66016618661D2
:101300007272E2725273C2733275A275127682766D
:101310007267E2675268C268326EA26E126F826FA5
:101320000D6173002030357106CF16CD1ACB1EC962
:1013300022C72AC52EC332C1B6DEBADCBEDAC2D895
:10134000C6D6F2D4F6D2FAD0FECE82E686E48AE29F
:101350008EE012FE16FC1AFA1EF82AF62EF432F26D
:1013600036F03AEE3EEC42EA46E872E676E47AE29D
:101370007EE00011854537150040EF90B03EAA870A
:1013800091C7854537150040EF90D0440100FA40E1
:10139000EA425A43CA433A442A459A450A46F6560F
:1013A0006657D6574658B658265E965E065FF64F85
:1013B0003660A660166186617272E2725273C27301
:1013C0003275A275127682767267E2675268C268D9
:1013D000326EA26E126F826F0D6173002030357114
:1013E00006CF16CD1ACB1EC922C72AC52EC332C1BD
:1013F000B6DEBADCBEDAC2D8C6D6F2D4F6D2FAD09D
:10140000FECE82E686E48AE28EE012FE16FC1AFA2E
:101410001EF82AF62EF432F236F03AEE3EEC42EAAC
:1014200046E872E676E47AE27EE000118545B71779
:10143000004013850740EF90F032AA8781CB8545A5
:10144000B717004013850740EF90D0380100FA40ED
:10145000EA425A43CA433A442A459A450A46F6564E
:101460006657D6574658B658265E965E065FF64FC4
:101470003660A660166186617272E2725273C27340
:101480003275A275127682767267E2675268C26818
:10149000326EA26E126F826F0D6173002030357153
:1014A00006CF16CD1ACB1EC922C72AC52EC332C1FC
:1014B000B6DEBADCBEDAC2D8C6D6F2D4F6D2FAD0DC
:1014C000FECE82E686E48AE28EE012FE16FC1AFA6E
:1014D0001EF82AF62EF432F236F03AEE3EEC42EAEC
:1014E00046E872E676E47AE27EE000118545B73799
:1014F000014013850740EF90F026AA8781CB8545F0
:10150000B737014013850740EF90D02C0100FA4017
:10151000EA425A43CA433A442A459A450A46F6568D
:101520006657D6574658B658265E965E065FF64F03
:101530003660A660166186617272E2725273C2737F
:101540003275A275127682767267E2675268C26857
:10155000326EA26E126F826F0D6173002030357192
:1015600006CF16CD1ACB1EC922C72AC52EC332C13B
:10157000B6DEBADCBEDAC2D8C6D6F2D4F6D2FAD01B
:10158000FECE82E686E48AE28EE012FE16FC1AFAAD
:101590001EF82AF62EF432F236F03AEE3EEC42EA2B
:1015A00046E872E676E47AE27EE000118545B757B8
:1015B0000140138507C0EF90F01AAA8781CB8545BB
:1015C000B7570140138507C0EF90D0200100FA40C3
:1015D000EA425A43CA433A442A459A450A46F656CD
:1015E0006657D6574658B658265E965E065FF64F43
:1015F0003660A660166186617272E2725273C273BF
:101600003275A275127682767267E2675268C26896
:10161000326EA26E126F826F0D61730020303571D1
:1016200006CF16CD1ACB1EC922C72AC52EC332C17A
:10163000B6DEBADCBEDAC2D8C6D6F2D4F6D2FAD05A
:10164000FECE82E686E48AE28EE012FE16FC1AFAEC
:101650001EF82AF62EF432F236F03AEE3EEC42EA6A
:1016600046E872E676E47AE27EE000118545375579
:101670000140EF90300FAA8791C78545375501404B
:10168000EF9050150100FA40EA425A43CA433A44E7
:101690002A459A450A46F6566657D6574658B658CA
:1016A000265E965E065FF64F3660A660166186611E
:1016B0007272E2725273C2733275A27512768276BA
:1016C0007267E2675268C268326EA26E126F826FF2
:1016D0000D6173002030411122C600080100324420
:1016E000410173002030411122C6000801A0011100
:1016F00006CE22CC0010B7172707138507E0EF505E
:10170000D007EF6080161306401F93052003B7171C
:1017100003001385E726EF00302E1306401F9305C4
:101720002003B71703001385F736EF00F02C1306DC
:10173000401F93052003B71703001385D716EF004A
:10174000B02B1306401F93052003B7170300138522
:10175000C706EF00702AC1460146854513052002E1
:101760007D2BC14601468545130510024D2BC14610
:1017700001468545130500025D2303A701839307F6
:10178000803E3357F702BA878A07BA978607BE8525
:101790000545E52581451305C002EF701075EF3052
:1017A000A06CD1671386473881450145EF30C05A98
:1017B0002945EF301034D1679385C738D167138539
:1017C000C739EF401048EF40C03B1145EF50404A49
:1017D000930680071306C00BB70700209385473296
:1017E0000945EF5060350145EF30702E2A87894753
:1017F0006312F7049305C02BB71703001385E72680
:10180000EF0030099305C02BB71703001385F73697
:10181000EF00300893058025B71703001385D7160E
:10182000EF00300793058025B71703001385C7061F
:10183000EF0030060545EF3090292A87854763126F
:10184000F7049305401FB71703001385E726EF0041
:1018500050049305401FB71703001385F736EF00B8
:1018600050039305401FB71703001385D716EF00E9
:1018700050029305401FB71703001385C706EF00FA
:10188000500183C7018893F7F70FB1DFA30704FE68
:10189000230704FEA30604FE130680079305C00B6E
:1018A000B7670020138547D7EFA0502DAA87A3065E
:1018B000F4FEA30704FE51A8230704FEA5A80346CF
:1018C000F4FE8347E4FE376700209306C00BB3069F
:1018D000D602130747D73697BA9783C7070003473F
:1018E000D4FE6374F7020346F4FE8347E4FE3767D1
:1018F00000209306C00BB306D602130747D73697CE
:10190000BA977D572380E7000DA00346F4FE834776
:10191000E4FE376700209306C00BB306D602130718
:1019200047D73697BA97238007008347E4FE850799
:101930002307F4FE0347E4FE9307B00BE3F1E7F857
:101940008347F4FE8507A307F4FE0347F4FE9307DD
:101950007007E3F3E7F6238001889967138607820F
:10196000B7670020938547D7B70700201385473214
:10197000EFF0C03DEF50E023BDB5411106C622C4D3
:101980000008EF3090020100B24022444101828001
:10199000011122CE00102326A4FE37F500E0832893
:1019A000450037F500E093F8E8FF2322150183A8EE
:1019B00001830965130505F433D5A802AA860147FA
:1019C0000325C4FEAA87014837F500E03303F70278
:1019D000B308D8029A983383F60233B6F6029A8592
:1019E000B387C8003E860CC950C9B7F700E09843DA
:1019F000B7F700E01367070198C3B7F700E0984313
:101A0000B7F700E01367170298C30100B7F700E0CB
:101A1000DC4313F717008547E31AF7FEB7F700E03A
:101A20009843B7F700E0799B98C3010072440561C1
:101A30008280011122CE00102326A4FE37F500E09B
:101A40008328450037F500E093F8E8FF23221501CD
:101A500083A8018337157A001305052033D5A80222
:101A6000AA8601470325C4FEAA87014837F500E08E
:101A70003303F702B308D8029A983383F60233B6D9
:101A8000F6029A85B387C8003E860CC950C9B7F7DD
:101A900000E09843B7F700E01367070198C3B7F772
:101AA00000E09843B7F700E01367170298C30100FE
:101AB000B7F700E0DC4313F717008547E31AF7FE9A
:101AC000B7F700E09843B7F700E0799B98C30100AF
:101AD000724405618280011106CE22CC0010AA8ECC
:101AE0002E8E32833685BA853E86C2864687F68735
:101AF000A307F4FEF2872307F4FE9A87A306F4FEF9
:101B0000AA872306F4FEAE87A305F4FEB287230559
:101B1000F4FEB687A304F4FEBA872304F4FE8347D9
:101B2000F4FE93068004014681453E85CD2A834715
:101B3000E4FE93068004014681453E85CD2283471D
:101B4000D4FE93068004014681453E85C92A834719
:101B5000C4FE93068004014681453E85C922834721
:101B6000B4FE93068004014681453E854D2A834795
:101B7000A4FE93068004014681453E854D2283479D
:101B800094FE93068004014681453E85492A834799
:101B900084FE93068004014681453E8549228347A1
:101BA000440093068004014681453E858D2A834783
:101BB000040093068004014681453E858D228347BB
:101BC000840093068004014681453E85892A0100F0
:101BD000F240624405618280011106CE22CC0010E1
:101BE0002326A4FE2324B4FEB28736872313F4FEF3
:101BF000BA872312F4FE85450965EF80E043B707F5
:101C000005500D472380E700B70705500547A3801F
:101C1000E700B7070550035744FE2392E700B707D4
:101C20000550035764FE2393E700B70705500327C9
:101C3000C4FE98C7B7070550032784FED8C7B70767
:101C4000055011472381E700814513056005EF70BA
:101C5000D02913056005EF7090250100F240624421
:101C600005618280011122CE00102326A4FEAE87DA
:101C7000A305F4FE8347B4FE85CB8327C4FEBD8B4A
:101C80000547B317F70093960701C1828327C4FE67
:101C900013D75700B70700200A0793870700BA97A2
:101CA0009C43368798CB3DA08327C4FEBD8B054758
:101CB000B317F70093960701C1828327C4FE13D799
:101CC0005700B70700200A0793870700BA979C437D
:101CD0003687D8CB0100724405618280011122CE83
:101CE00000102326A4FE8327C4FE958313F77700F4
:101CF000B70700200A0793870700BA979C439C47C1
:101D00000327C4FE7D8B85463397E600F98FB337F2
:101D1000F00093F7F70F3E85724405618280797178
:101D200006D622D40018232EA4FC232CB4FCB287A0
:101D30002328D4FCA30BF4FC232004FE232204FE5E
:101D4000232404FE8327C4FD958393F7F70F9D8B0F
:101D5000A307F4FE8327C4FD93F7F70FFD8B23073A
:101D6000F4FE8347F4FE91E785451145EF8020316D
:101D700091A80347F4FE85476317F7008545214581
:101D8000EF80E02F81A00347F4FE89476317F70037
:101D900085454145EF80A02E35A00347F4FE8D47D1
:101DA0006318F700854513050002EF80402D19A840
:101DB0000347F4FE91476317F700854513050004B8
:101DC000EF80E02B8347E4FE0547B317F700C20717
:101DD000C1832310F4FE032784FD85476317F702B0
:101DE000832704FDC207C183A183C207C18389E79A
:101DF0008D472322F4FE11A8832704FDC207C18367
:101E0000A183C207C1832322F4FE832704FDC207F6
:101E1000C18393F7F70F2324F4FE0347F4FEB707BB
:101E200000200A0793870700BA979C43130704FE14
:101E3000BA853E85EF705031032784FD85476319CD
:101E4000F7020347F4FEB70700200A07938707004D
:101E5000BA9794438347E4FE0547B317F700C207D8
:101E6000C183034774FD3A86BE853685EF70705096
:101E70000100B2502254456182801D7186CEA2CCF1
:101E800080102326A4FA2324B4FA85450325C4FA36
:101E9000EF101004AA873E871306D006D1679385FA
:101EA000873C3A85EF50F000832784FAB337F0007F
:101EB00093F7F70F3E871306F006D1679385873CAB
:101EC0003A85EF50007F832784FABD832315F4FE03
:101ED0008357A4FE85073E87832784FAB3D7E7029A
:101EE0002314F4FE0325C4FAEF10B005B737014000
:101EF000938707C02326F4FE0327C4FAA54763ECA3
:101F0000E7088327C4FA13972700D567938707BF8D
:101F1000BA979C438287B7370140938707C023262F
:101F2000F4FE95A8B70700402326F4FEADA0B7073E
:101F30000040938707402326F4FEB1A8B71700405E
:101F4000938707802326F4FEB9A0B7170040938734
:101F500007C02326F4FE81A0B71700402326F4FE15
:101F60001DA8B7170040938707402326F4FE25A03D
:101F7000B7370140938707402326F4FE29A8B757B7
:101F80000140938707C02326F4FE31A0B7570140D4
:101F90002326F4FE0100232E04FC232004FE23123A
:101FA00004FE835784FE2310F4FE8357A4FE231EF1
:101FB000F4FC231104FE231F04FC230204FE9307F8
:101FC000C4FDBE850325C4FEEF8060390546854506
:101FD0000325C4FEEF80104985450325C4FEEF802C
:101FE000707FD16703AE073A1387073A0323470090
:101FF0001387073A832887001387073A0328C70007
:102000001387073A084B1387073A4C4B1387073A55
:10201000104F1387073A544F1387073A1853938783
:10202000073ADC53232AC4FB232C64FA232E14FB27
:10203000232004FD2322A4FC2324B4FC2326C4FC77
:102040002328D4FC232AE4FC232CF4FC8327C4FAA1
:1020500093F7F70F8A07130704FFBA9783A747FC84
:102060008D453E85EF7060688327C4FA8A071307A1
:1020700004FFBA9783A747FC3E85EF704063854510
:102080000325C4FEEF8090320100F64066442561CE
:102090008280797106D622D40018232EA4FC232C2A
:1020A000B4FC032784FD896793871771B337F70062
:1020B00093F7F70F3E8713065003D1679385073FC9
:1020C0003A85EF50005FB7370140938707C023265A
:1020D000F4FE8327C4FDC183BD8B2547636EF706DD
:1020E00013972700D567938787C1BA979C43828748
:1020F000B7370140938707C02326F4FEB1A8B7077E
:1021000000402326F4FE89A8B707004093870740C4
:102110002326F4FE91A0B71700409387078023265B
:10212000F4FE1DA8B7170040938707C02326F4FECE
:1021300025A0B7370140938707402326F4FE29A83E
:10214000B7570140938707C02326F4FE31A0B75745
:1021500001402326F4FE01008327C4FE83D7C70273
:102160002315F4FE0357A4FE832784FD3307F702EB
:10217000896793870771B357F7022314F4FE832707
:10218000C4FDA1838D8B81EB8327C4FE035784FE9E
:10219000239AE702A9A88327C4FDA18313F7370078
:1021A00085476319F7008327C4FE035784FE239CE9
:1021B000E70235A88327C4FDA18313F737008947B9
:1021C0006319F7008327C4FE035784FE239EE702AA
:1021D00039A88327C4FDA18313F737008D476318FF
:1021E000F7008327C4FE035784FE2390E704010011
:1021F000B2502254456182805D7186C6A2C48008B7
:10220000232EA4FA232CB4FA232AC4FA8327C4FB6E
:10221000C1838D453E85EF10A04BAA873E871306EC
:10222000D00AD1679385073F3A85EF50804803274E
:1022300044FB896793871771B337F70093F7F70F5C
:102240003E871306F00AD1679385073F3A85EF5022
:102250004046232E04FC232004FE231204FE2326E2
:1022600004FC232804FC232A04FC232C04FC23154F
:1022700004FE8327C4FBC183BD8B3E85EF10604CF9
:102280008327C4FB93F7F70F9306803101468545FA
:102290003E85713485450545EF70705EB737014066
:1022A000938707C02326F4FE8327C4FBC183BD8B1D
:1022B0002547636EF70613972700D567938707C4F2
:1022C000BA979C438287B7370140938707C023267C
:1022D000F4FEB1A8B70700402326F4FE89A8B7078B
:1022E0000040938707402326F4FE91A0B7170040D3
:1022F000938707802326F4FE1DA8B7170040938715
:1023000007C02326F4FE25A0B73701409387074076
:102310002326F4FE29A8B7570140938707C0232638
:10232000F4FE31A0B75701402326F4FE01008327B5
:10233000C4FB13D7C7008D47631AF7008545B7075D
:1023400016001385070CEF70500615AA8327C4FBEF
:1023500013D7C700C547631AF7008545B7071800AC
:1023600013850710EF70700419AA8327C4FB13D7D5
:10237000C700C947631AF7008545B70718001385DA
:102380000720EF709002E5A88327C4FB13D7C7008E
:10239000CD47631AF7008545B70718001385073046
:1023A000EF70B000E9A88327C4FB13D7C7009307D9
:1023B0002002631AF7008545B7171A0013850780B6
:1023C000EF70A07E6DA88327C4FB13D7C7009307C7
:1023D0003002631AF7008545B7171A00138507C046
:1023E000EF70A07C69A88327C4FB13D7C7009307AD
:1023F00010036317F70085450565EF70007B41A06A
:102400008327C4FB13D7C70093071007631AF7008D
:102410008545B707008013854700EF70007985A0D8
:102420008327C4FB13D7C70093073008631AF7004C
:102430008545B707138013850701EF70007781A0EA
:102440008327C4FB13D7C70093071009631AF7004B
:102450008545B707158013850702EF70007505A045
:102460008327C4FB13D7C700930730096319F7000C
:102470008545B707158013850704EF70007303A720
:102480000183832784FBB357F702C1832315F4FE2E
:1024900003A701838357A4FE8507BE86832784FB99
:1024A000B387F602B357F7022314F4FE035784FEF2
:1024B000832744FB3307F702896793870771B35774
:1024C000F7022313F4FE835784FEFD17C207C1836E
:1024D0002310F4FE8357A4FE231EF4FC231104FEF4
:1024E000231F04FC230204FE9307C4FDBE850325BD
:1024F000C4FEEF70D066930700072316F4FC8547EF
:102500002317F4FC231804FC835764FE2319F4FCFE
:102510008947231AF4FC8947231BF4FC231C04FC81
:10252000231D04FC8327C4FBA1838D8B9DE39307AC
:10253000C4FCBE850325C4FEEF70507AA145032577
:10254000C4FEEF80207991450325C4FEEF80500D35
:1025500045A08327C4FBA18313F737008547631584
:10256000F7029307C4FCBE850325C4FEEF80C010AC
:10257000A1450325C4FEEF80A07A93050040032502
:10258000C4FEEF80B00EADA08327C4FBA18313F778
:10259000370089476314F7029307C4FCBE850325FF
:1025A000C4FEEF80802BA1450325C4FEEF80E07CB4
:1025B00091450325C4FEEF80D0101DA88327C4FBDE
:1025C000A18313F737008D476314F7029307C4FC08
:1025D000BE850325C4FEEF800046A1450325C4FE49
:1025E000EF80607E930500400325C4FEEF8030122B
:1025F00085450325C4FEEF80E06085450325C4FEC4
:10260000EF80C05A0100B640264461618280797132
:1026100006D622D40018232EA4FC8327C4FDB3378A
:10262000F00093F7F70F3E8713061004D1679385E8
:1026300087413A85EF50E0078327C4FD9C43BD8B5B
:102640000547B317F70093960701C1828327C4FD9E
:102650009C4313D75700B70700200A07938707004A
:10266000BA979C43368798CB8327C4FDDC43BD8B48
:102670000547B317F70093960701C1828327C4FD6E
:10268000DC4313D75700B70700200A0793870700DA
:10269000BA979C43368798CB8327C4FDDC47232613
:1026A000F4FE01008327C4FE1387F7FF2326E4FE10
:1026B000F5FB8327C4FDDC43BD8B0547B317F7004B
:1026C00093960701C1828327C4FDDC4313D75700CB
:1026D000B70700200A0793870700BA979C433687FD
:1026E000D8CB8327C4FDDC472324F4FE01008327D5
:1026F00084FE1387F7FF2324E4FEF5FB8327C4FD44
:102700009C43BD8B0547B317F70093960701C18221
:102710008327C4FD9C4313D75700B70700200A073F
:1027200093870700BA979C433687D8CB0100B250F5
:10273000225445618280797106D622D40018232E56
:10274000A4FC8327C4FDB337F00093F7F70F3E874F
:1027500013064005D167938587413A85EF40707530
:102760008327C4FDDC43BD8B0547B317F700939661
:102770000701C1828327C4FDDC4313D75700B70785
:1027800000200A0793870700BA979C433687D8CB67
:102790008327C4FD9C43BD8B0547B317F700939671
:1027A0000701C1828327C4FD9C4313D75700B70795
:1027B00000200A0793870700BA979C433687D8CB37
:1027C0008327C4FDDC472326F4FE01008327C4FED3
:1027D0001387F7FF2326E4FEF5FB8327C4FD9C4304
:1027E000BD8B0547B317F70093960701C182832776
:1027F000C4FD9C4313D75700B70700200A079387EF
:102800000700BA979C43368798CB8327C4FDDC47E3
:102810002324F4FE0100832784FE1387F7FF23247B
:10282000E4FEF5FB8327C4FDDC43BD8B0547B317EE
:10283000F70093960701C1828327C4FDDC4313D7B9
:102840005700B70700200A0793870700BA979C43F1
:10285000368798CB8327C4FDDC472322F4FE010092
:10286000832744FE1387F7FF2322E4FEF5FB0100D4
:10287000B250225445618280797106D622D4001864
:10288000232EA4FCAE87A30DF4FC8327C4FDB3372D
:10289000F00093F7F70F3E8713069006D1679385F4
:1028A00087413A85EF40F0608327C4FD9C43BD8B90
:1028B0000547B317F70093960701C1828327C4FD2C
:1028C0009C4313D75700B70700200A0793870700D8
:1028D000BA979C433687D8CB8347B4FD95CB8327E3
:1028E000C4FDDC43BD8B0547B317F7009396070182
:1028F000C1828327C4FDDC4313D75700B7070020EC
:102900000A0793870700BA979C43368798CB0DA890
:102910008327C4FDDC43BD8B0547B317F7009396AF
:102920000701C1828327C4FDDC4313D75700B707D3
:1029300000200A0793870700BA979C433687D8CBB5
:102940008327C4FDDC472326F4FE01008327C4FE51
:102950001387F7FF2326E4FEF5FB8327C4FD9C4382
:10296000BD8B0547B317F70093960701C1828327F4
:10297000C4FD9C4313D75700B70700200A0793876D
:102980000700BA979C43368798CB8327C4FDDC4762
:102990002324F4FE0100832784FE1387F7FF2324FA
:1029A000E4FEF5FB8327C4FD9C43BD8B0547B317AD
:1029B000F70093960701C1828327C4FD9C4313D778
:1029C0005700B70700200A0793870700BA979C4370
:1029D0003687D8CB8327C4FDDC43BD8B0547B317AF
:1029E000F70093960701C1828327C4FDDC4313D708
:1029F0005700B70700200A0793870700BA979C4340
:102A0000368798CB0100B25022544561828079719B
:102A100006D622D40018232EA4FC8327C4FDB33786
:102A2000F00093F7F70F3E8713065008D1679385A0
:102A300087413A85EF40F047A30704FE8327C4FD92
:102A40009C43BD8B0547B317F70093960701C182DE
:102A50008327C4FD9C4313D75700B70700200A07FC
:102A600093870700BA979C433687D8CB8327C4FD4A
:102A7000DC43BD8B0547B317F70093960701C1826E
:102A80008327C4FDDC4313D75700B70700200A078C
:102A900093870700BA979C43368798CB8327C4FD5A
:102AA000DC472324F4FE0100832784FE1387F7FF0D
:102AB0002324E4FEF5FB8327C4FD9C43BD8B05471F
:102AC000B317F70093960701C1828327C4FD9C4387
:102AD00013D75700B70700200A0793870700BA9754
:102AE0009C43368798CB8327C4FDDC472322F4FE22
:102AF0000100832744FE1387F7FF2322E4FEF5FB42
:102B00008327C4FDDC433E85EFF04F9DAA8781C734
:102B10008547A307F4FE8327C4FD9C43BD8B05476F
:102B2000B317F70093960701C1828327C4FD9C4326
:102B300013D75700B70700200A0793870700BA97F3
:102B40009C433687D8CB8327C4FDDC472320F4FE83
:102B50000100832704FE1387F7FF2320E4FEF5FB23
:102B60008347F4FE3E85B2502254456182807971DC
:102B700006D622D40018232EA4FCAE87A30DF4FCA5
:102B80008327C4FDB337F00093F7F70F3E87130692
:102B9000700AD167938587413A85EF40903193075A
:102BA00000F8A307F4FE09AA0347B4FD8347F4FE27
:102BB000F98F93F7F70F95CB8327C4FDDC43BD8BCB
:102BC0000547B317F70093960701C1828327C4FD19
:102BD000DC4313D75700B70700200A079387070085
:102BE000BA979C43368798CB0DA88327C4FDDC4356
:102BF000BD8B0547B317F70093960701C182832762
:102C0000C4FDDC4313D75700B70700200A0793879A
:102C10000700BA979C433687D8CB8347F4FE858359
:102C2000A307F4FE8327C4FDDC472324F4FE010040
:102C3000832784FE1387F7FF2324E4FEF5FB832715
:102C4000C4FD9C43BD8B0547B317F700939607015E
:102C5000C1828327C4FD9C4313D75700B7070020C8
:102C60000A0793870700BA979C43368798CB832738
:102C7000C4FDDC472322F4FE0100832744FE1387B2
:102C8000F7FF2322E4FEF5FB8327C4FD9C43BD8BA5
:102C90000547B317F70093960701C1828327C4FD48
:102CA0009C4313D75700B70700200A0793870700F4
:102CB000BA979C433687D8CB8347F4FEE39607EE5A
:102CC0000325C4FDA933AA87FD17B337F00093F796
:102CD000F70F3E85B250225445618280397106DE7D
:102CE00022DC26DA80002326A4FCAE87A305F4FCB0
:102CF0008327C4FCB337F00093F7F70F3E87130622
:102D0000000CD167938587413A85EF40901AA3075D
:102D100004FEA1472307F4FE8327C4FC9C43BD8B1C
:102D20000547B317F70093960701C1828327C4FCB8
:102D30009C4313D75700B70700200A079387070063
:102D4000BA979C433687D8CB8327C4FCDC4723241F
:102D5000F4FE0100832784FE1387F7FF2324E4FE9B
:102D6000F5FB8327C4FCDC43BD8B0547B317F70095
:102D700093960701C1828327C4FCDC4313D7570015
:102D8000B70700200A0793870700BA979C43368746
:102D900098CB7DA88327C4FC9C43BD8B0547B31704
:102DA000F70093960701C1828327C4FC9C4313D785
:102DB0005700B70700200A0793870700BA979C437C
:102DC0003687D8CB8327C4FCDC472322F4FE0100DE
:102DD000832744FE1387F7FF2322E4FEF5FB8327B6
:102DE000C4FC9C43BD8B0547B317F70093960701BE
:102DF000C1828327C4FC9C4313D75700B707002028
:102E00000A0793870700BA979C43368798CB832796
:102E1000C4FCDC472320F4FE0100832704FE138753
:102E2000F7FF2320E4FEF5FB8347F4FE8607939427
:102E30008701E1848327C4FCDC433E85EFE01FEA81
:102E4000AA87E207E187C58FE207E187A307F4FEBF
:102E50008347E4FE1387F7FF2307E4FE85FF8327FC
:102E6000C4FC9C43BD8B0547B317F700939607013D
:102E7000C1828327C4FC9C4313D75700B7070020A7
:102E80000A0793870700BA979C433687D8CB8327D6
:102E9000C4FCDC47232EF4FC01008327C4FD138708
:102EA000F7FF232EE4FCF5FB8347B4FCBE85032526
:102EB000C4FCEFF07F9C8347F4FE3E85F2506254E1
:102EC000D25421618280011106CE22CC001023262B
:102ED000A4FEAE873287A305F4FEBA872305F4FE6D
:102EE0008327C4FEB337F00093F7F70F3E8713062E
:102EF0002029D167938587413A85EF40807B032560
:102F0000C4FEEFF0CFF08327C4FE83C78700860797
:102F100093F7F70FBE850325C4FE91398347B4FEAE
:102F2000BE850325C4FEA1318347A4FEBE850325CB
:102F3000C4FE35390325C4FEEFF0EFFF0100F24077
:102F4000624405618280797106D622D40018232E4E
:102F5000A4FCAE87A30DF4FC8327C4FDB337F000B7
:102F600093F7F70F3E871306402AD1679385874171
:102F70003A85EF400074A30704FE0325C4FDEFF07B
:102F80000FE98327C4FD83C78700860793F7F70FF0
:102F9000BE850325C4FDE13E8347B4FDBE85032500
:102FA000C4FDF1360325C4FDEFF0EFF80325C4FDA1
:102FB000EFF0EFE58327C4FD83C787008607E207AC
:102FC000E18793E71700E207E18793F7F70FBE85E4
:102FD0000325C4FD693E85450325C4FD0133AA8749
:102FE000A307F4FE0325C4FDEFF0EFF48347F4FEDE
:102FF0003E85B250225445618280797106D622D432
:1030000000182326A4FEAE872322C4FE2320D4FE6C
:10301000232EE4FCA305F4FE8327C4FEB337F0009F
:1030200093F7F70F3E871306F02BD16793858741FF
:103030003A85EF400068032704FE8327C4FDB307E9
:10304000F740B337F00093F7F70F3E871306002CD5
:10305000D167938587413A85EF40A0658327C4FEF9
:10306000032704FE98C38327C4FE0327C4FDD8C3E7
:103070008327C4FE0347B4FE2384E7008327C4FEEE
:10308000032744FED8C7C14605468545032504FEEF
:10309000EFE0FFC8D146054685450325C4FDEFE0B6
:1030A0001FC80100B250225445618280011122CE16
:1030B00000102326A4FEAE87A305F4FED5670327E0
:1030C000C4FE0A07938787C6BA979C433E87834707
:1030D000B4FEC207C1832316F7000100D56703279A
:1030E000C4FE0A07938787C6BA979C4383D7870095
:1030F000C207C18393F70708F5F301007244056125
:103100008280011122CE00102326A4FE2324B4FEC7
:103110002322C4FEB1A0832784FE13871700232433
:10312000E4FE83C60700D5670327C4FE0A0793871A
:1031300087C6BA979C433E8793970601C18323169F
:10314000F7000100D5670327C4FE0A07938787C6E7
:10315000BA979C4383D78700C207C183898BFDD36D
:10316000832744FE1387F7FF2322E4FECDF70100F7
:10317000D5670327C4FE0A07938787C6BA979C437F
:1031800083D78700C207C18393F70708F5F30100CF
:10319000724405618280011122CE00102326A4FE14
:1031A000AE872315F4FE8357A4FEA183C207C18313
:1031B00093F6F70FD5670327C4FE0A07938787C6E0
:1031C000BA979C433E8793970601C1832316F70065
:1031D0000100D5670327C4FE0A07938787C6BA97FD
:1031E0009C4383D78700C207C183898BFDD3835754
:1031F000A4FE93F6F70FD5670327C4FE0A0793874B
:1032000087C6BA979C433E8793970601C1832316CE
:10321000F7000100D5670327C4FE0A07938787C616
:10322000BA979C4383D78700C207C18393F70708E7
:10323000F5F30100724405618280011122CE001075
:103240002326A4FE2324B4FE2322C4FE71A88327D0
:1032500084FE83D70700A183C207C18393F6F70FCB
:10326000D5670327C4FE0A07938787C6BA979C438E
:103270003E8793970601C1832316F7000100D567A7
:103280000327C4FE0A07938787C6BA979C4383D750
:103290008700C207C183898BFDD3832784FE1387F0
:1032A00027002324E4FE83D7070093F6F70FD567A2
:1032B0000327C4FE0A07938787C6BA979C433E87B5
:1032C00093970601C1832316F7000100D5670327F2
:1032D000C4FE0A07938787C6BA979C4383D78700A3
:1032E000C207C183898BFDD3832744FE1387F7FF71
:1032F0002322E4FEA9FF0100D5670327C4FE0A07C5
:10330000938787C6BA979C4383D78700C207C18338
:1033100093F70708F5F301007244056182800111FB
:1033200022CE00102326A4FE2324B4FE2322C4FEB2
:103330002320D4FED5670327C4FE0A07938787C6D8
:10334000BA979C4383D78700C207C183858BC1CFBF
:10335000D5670327C4FE0A07938787C6BA979C439D
:1033600083D7C70049A0832784FE1387170023242F
:10337000E4FE83C60700D5670327C4FE0A079387C8
:1033800087C6BA979C433E8793970601C18323164D
:10339000F7000100D5670327C4FE0A07938787C695
:1033A000BA979C4383D78700C207C18393F7070866
:1033B000F5F3832744FE85CBD5670327C4FE0A07B0
:1033C000938787C6BA979C4383D7C7009396070114
:1033D000C182832744FE138717002322E4FE13F7DC
:1033E000F60F2380E700832704FE1387F7FF2320CF
:1033F000E4FEB5FB01007244056182805D7186C602
:10340000A2C480082326A4FC2324B4FC2322C4FCE9
:103410002320D4FC232EE4FA232CF4FA232A04FBE1
:10342000D5670327C4FC0A07938787C6BA979C43CE
:103430003E85EF60505685450545EF6050440327B3
:1034400004FC93073012631DF7000327C4FB9307A6
:1034500050126317F70085450545EF60007525A0FC
:10346000032704FC89679387A714631EF7000327CB
:10347000C4FB89679387C7146317F7008545371521
:103480002000EF6080728327C4FC91E785450565C5
:10349000EF60F03E25A00327C4FC85476317F700C3
:1034A00085451165EF60104211A80327C4FC8947C8
:1034B0006316F70085452165EF60D040832704FC43
:1034C00093F7F70F93068031054685453E85EFE07B
:1034D0001F858327C4FB93F7F70F930680310546BA
:1034E00085453E85EFE0BF83032784FBC167F9175D
:1034F000630DF700832784FB93F7F70F930680345F
:10350000054681453E85EFE09F81032744FB9307F5
:10351000F00F630DF700832744FB93F7F70F930633
:103520000031014685453E85EFE06FFF232E04FC08
:10353000232004FE232204FE232404FE231604FE7B
:10354000231E04FC93074010231FF4FC231004FEE9
:10355000032784FC85476305F702832784FC81CF1A
:10356000032784FC89476303F702032784FC8D4704
:103570006304F7020DA8231104FE231204FE25A004
:10358000231104FE85472312F4FE31A88947231135
:10359000F4FE231204FE01A889472311F4FE854797
:1035A0002312F4FE0100231704FE03A701838327DF
:1035B00044FCB357F7022317F4FE03A701838327C4
:1035C00044FCB377F70291E78357E4FEFD17231716
:1035D000F4FE0357E4FE9307F00763F7E700930751
:1035E00080032317F4FE49A80357E4FE9307F00372
:1035F00063F7E700930700032317F4FEB5A803570A
:10360000E4FEFD4763F7E700930780022317F4FE0B
:10361000A5A00357E4FEBD4763F7E7009307000248
:103620002317F4FE91A80357E4FE9D4763F6E700D5
:10363000E1472317F4FE89A00357E4FE8D4763F6A4
:10364000E700C1472317F4FE05A80357E4FE8547AA
:1036500063F6E700A1472317F4FE39A88357E4FE79
:1036600081C7231704FE09A81306D024D1679385C8
:1036700047440145EF40E0038357E4FE2314F4FE82
:10368000930700202313F4FE231504FE231604FEE3
:10369000D5670327C4FC0A07938787C6BA979C435C
:1036A0003E879307C4FDBE853A85EF603036D56707
:1036B0000327C4FC0A07938787C6BA979C438545AE
:1036C0003E85EF6030440100B6402644616182804F
:1036D000797122D60018232EA4FC232CB4FC854734
:1036E000A307F4FEB76700200327C4FD0A079387EA
:1036F00047B4BA979C4389EFB76700200327C4FDFE
:103700000A07938747B4BA97032784FD98C325A077
:10371000B76700200327C4FD0A07938747B4BA9709
:103720009C43032784FD6316F7008547A307F4FE37
:1037300019A0A30704FE8347F4FE3E853254456179
:103740008280011106CE22CC00102326A4FE8327FE
:10375000C4FE81EB8545856713850780EF603012D5
:103760006DA80327C4FE85476317F7008545054507
:10377000EF6050155DA00327C4FE89476317F7006B
:1037800085450945EF60101449A80327C4FE8D47FD
:103790006317F70085451145EF60D012BDA80327D8
:1037A000C4FE91476317F70085452145EF609011EE
:1037B000ADA00327C4FE95476317F7008545414533
:1037C000EF60501099A80327C4FE99476318F700CB
:1037D000854513050002EF60F00E81A00327C4FEAB
:1037E0009D476317F70085450965EF60500935A0CF
:1037F0000327C4FEA1476318F70085453705080075
:10380000EF60F00719A80327C4FEA5476317F70068
:10381000854537051000EF6090060100F2406244D4
:1038200005618280797122D60018232EA4FCB73757
:103830000140938707C02326F4FE231504FE0327C7
:10384000C4FDA54763ECE7088327C4FD1397270051
:10385000D567938747C7BA979C438287B73701409C
:10386000938707C02326F4FE95A8B70700402326B8
:10387000F4FEADA0B7070040938707402326F4FE6F
:10388000B1A8B7170040938707802326F4FEB9A09C
:10389000B7170040938707C02326F4FE81A0B7170F
:1038A00000402326F4FE1DA8B71700409387074069
:1038B0002326F4FE25A0B73701409387074023262F
:1038C000F4FE29A8B7570140938707C02326F4FECA
:1038D00031A0B75701402326F4FE0100B76700204E
:1038E0000327C4FD0A079387C7B6BA979843894749
:1038F000631FF7008327C4FE83D74702139707018E
:1039000041838D47B357F7022315F4FE39A083276F
:10391000C4FE83D747022315F4FE8357A4FE3E85D9
:10392000325445618280797122D60018232EA4FC7E
:10393000B7370140938707C02326F4FE0327C4FD51
:10394000A54763ECE7088327C4FD13972700D567D5
:103950009387C7C9BA979C438287B737014093873B
:1039600007C02326F4FE95A8B70700402326F4FEDF
:10397000ADA0B7070040938707402326F4FEB1A807
:10398000B7170040938707802326F4FEB9A0B71726
:103990000040938707C02326F4FE81A0B71700409C
:1039A0002326F4FE1DA8B71700409387074023265F
:1039B000F4FE25A0B7370140938707402326F4FE85
:1039C00029A8B7570140938707C02326F4FE31A0EA
:1039D000B75701402326F4FE01008327C4FE23923B
:1039E00007020100325445618280011122CE00108D
:1039F0002326A4FEAE87A305F4FE0100D5670327A6
:103A0000C4FE0A07938747CCBA979C4383D7070025
:103A1000C207C18393F70708F5D3D5670327C4FE10
:103A20000A07938747CCBA979C433E878347B4FEE7
:103A3000C207C1832312F70001007244056182802E
:103A4000011106CE22CC00102326A4FE2324B4FEAE
:103A50002322C4FE832784FEB337F00093F7F70FC9
:103A60003E8713061004D1679385C7463A85EF3029
:103A7000504429A8832784FE138717002324E4FEDB
:103A800083C70700BE850325C4FE8537832744FE10
:103A90001387F7FF2322E4FEF1FF0100F2406244A6
:103AA00005618280011106CE22CC00102326A4FEDF
:103AB0002324B4FE832784FEB337F00093F7F70F77
:103AC0003E8713060005D1679385C7463A85EF30D8
:103AD000503E39A8832784FE138717002324E4FE71
:103AE0008387070093F7F70FBE850325C4FEF53DD6
:103AF000832784FE83870700F1FF0100F2406244C0
:103B000005618280011106CE22CC00102326A4FE7E
:103B1000AE87A305F4FED5670327C4FE0A07938783
:103B200047CCBA979C433E878347B4FE3E869305B5
:103B300050523A85EF702076138701858327C4FEA3
:103B4000BA9783C7070081453E85EF50103A8347F7
:103B5000B4FE81CF138701858327C4FEBA9783C73C
:103B600007003E85EF50B03419A8138701858327DD
:103B7000C4FEBA9783C707003E85EF503035010079
:103B8000F240624405618280011122CE001023269A
:103B9000A4FE2324B4FED5670327C4FE0A07938737
:103BA00047CCBA979C4383D70700C207C18393F7DA
:103BB00007028DC7D5670327C4FE0A07938747CC42
:103BC000BA979C4383D74700C207C18313F7F70F07
:103BD000832784FE2380E700854711A081473E8527
:103BE000724405618280797106D622D40018232E92
:103BF000A4FC232CB4FC232AC4FC2328D4FC0327D4
:103C000044FD832704FD3D8F8327C4FDB207F98F50
:103C100093B7170093F7F70F3E871306A00AD167F3
:103C20009385C7463A85EF30D028832744FD13D7C4
:103C30008700832704FDA183B307F74093B71700DC
:103C400093F7F70F3E871306B00AD1679385C746EF
:103C50003A85EF301026832744FD93F7F70FE146AE
:103C6000014685453E85EFE08F8B832704FD93F762
:103C7000F70F93068004014681453E85EFE02F8AC9
:103C800085450545EF60A03F032744FDC167FD174B
:103C9000F98F0D67130707386387E7200D67130750
:103CA00007386369F7040567130757166381E7163A
:103CB000056713075716636FF7001307F022638A2F
:103CC000E70C130760306381E71013076012638805
:103CD000E70865A6096713078736638BE7160D6744
:103CE000130707126387E71809671307A714638090
:103CF000E71461A615671307A738638EE7261567D3
:103D00001307A7386362F7021167130787386380C8
:103D1000E7201567130787126385E72211671307EA
:103D20004712638CE71A91AE19671307C738638887
:103D3000E72A19671307C7386368F700196713077D
:103D400067106384E72615AE1D671307E7106382CB
:103D5000E72C1D671307E7386387E72E39AEB707EF
:103D60000140D44FB7070140370700FC7D17758F1E
:103D7000D8CFB7070140D843B70701406D9BD8C3E0
:103D8000B7070140D843B707014013674700D8C3BE
:103D9000EDA4B7070140D44FB7070140370700FC37
:103DA0007D17758FD8CFB7070140D44FB7070140B3
:103DB00037070004558FD8CFB7070140D843B7075E
:103DC00001406D9BD8C355ACB7070140D44FB7072E
:103DD0000140370700FC7D17758FD8CFB70701402A
:103DE000D44FB707014037070004558FD8CFB70726
:103DF0000140D843B70701406D9BD8C3B7070140C6
:103E0000D843B707014013674700D8C3BDA4B7071D
:103E10000140D843B70701405D9BD8C3B7070140B5
:103E2000D843B707014013678700D8C3B9A4B707C1
:103E30000140D843B70701401377F7FCD8C3B70751
:103E40000140D843B707014013670701D8C335A421
:103E5000B7070140D843B70701401377F7FCD8C331
:103E6000B7070140D843B707014013670703D8C31A
:103E700029A4B7070140D44FB70701403707FDFF1A
:103E80007D17758FD8CFB7070140D44F832744FDE6
:103E9000A18313970701B70703007D8FB707014080
:103EA000558FD8CFD9AAB7070140D44FB7070140E3
:103EB0003707FDFF7D17758FD8CFB7070140D44F67
:103EC000832744FDA18313970701B70703007D8F64
:103ED000B7070140558FD8CF4DA2B7070140D44F47
:103EE000B70701403707F4FF7D17758FD8CFB707A5
:103EF0000140D44F832744FDA18313972701B707BF
:103F00000C007D8FB7070140558FD8CFBDA2B707F2
:103F10000140D44FB70701403707F4FF7D17758F75
:103F2000D8CFB7070140D44F832744FDA18313970F
:103F30002701B7070C007D8FB7070140558FD8CFF9
:103F40002DAAB7070140D44FB70701403707D0FF6C
:103F50007D17758FD8CFB7070140D44F832744FD15
:103F6000A18313974701B70730007D8FB707014042
:103F7000558FD8CF19A2B7070140D44FB7070140DA
:103F80003707D0FF7D17758FD8CFB7070140D44FC3
:103F9000832744FDA18313974701B70730007D8F26
:103FA000B7070140558FD8CFC9A8B7070140D44FF4
:103FB000B7070140370740FF7D17758FD8CFB70788
:103FC0000140D44F832744FDA18313976701B707AE
:103FD000C0007D8FB7070140558FD8CF79A8B707AC
:103FE0000140D44FB7070140370740FF7D17758F59
:103FF000D8CFB7070140D44F832744FDA18313973F
:104000006701B707C0007D8FB7070140558FD8CF34
:10401000ADA0B7070140D44FB7070140370700FDF7
:104020007D17758FD8CFB7070140D44F832744FD44
:10403000A18313978701B70700037D8FB70701405E
:10404000558FD8CF1DA8B7070140D44FB7070140FF
:10405000370700FD7D17758FD8CFB7070140D44FC4
:10406000832744FDA18313978701B70700037D8F42
:10407000B7070140558FD8CF01008327C4FD91E7D2
:1040800085451165EF50B07F69A80327C4FD8547BA
:104090006318F700854537050200EF60A00251A0C4
:1040A0000327C4FD89476318F700854537050400D9
:1040B000EF604001BDA00327C4FD8D476318F700E2
:1040C000854537050800EF50F07FA1A80327C4FD00
:1040D00091476318F700854537051000EF50907E33
:1040E00089A00327C4FD95476318F700854513058C
:1040F0000004EF50307D35A00327C4FD99476318B5
:10410000F700854513050008EF50D07B19A8032759
:10411000C4FD9D476317F700854513050010EF5058
:10412000707A232004FE232204FE232404FE232687
:1041300004FE832784FD2320F4FE231204FE2313B0
:1041400004FE231404FE231604FEB1472315F4FED7
:10415000D5670327C4FD0A07938747CCBA979C43CA
:104160003E87930704FEBE853A85EF609069D56768
:104170000327C4FD0A07938747CCBA979C4385451C
:104180003E85EF70400B0100B250225445618280A1
:10419000797106D622D40018232EA4FC232CB4FC5B
:1041A0008327C4FDB337F00093F7F70F3E8713065C
:1041B0003006D167938547493A85EF30804F231702
:1041C00004FEBDA013058008EFD05FB1AA87B9E354
:1041D000032784FDF54763F5E70279468325C4FD8F
:1041E0001945EFF0FF858327C4FDF907232EF4FC62
:1041F000832784FD8917232CF4FC231704FE0DA8C4
:10420000032684FD8325C4FD1945EFF07F83232C0D
:1042100004FC25A08357E4FE85072317F4FE03570B
:10422000E4FE9307301F63E9E7000545EFD04FF642
:10423000832784FDC1FB11A00100832784FD3E85F7
:10424000B250225445618280797106D622D400187A
:10425000232EA4FC232CB4FC8327C4FDB337F00029
:1042600093F7F70F3E871306600ED1679385474992
:104270003A85EF300044832784FD2326F4FE93071C
:10428000C4FE81463E868325C4FDB76700201385A2
:1042900047B9EF40A0458327C4FE3E85B250225463
:1042A00045618280411106C622C4000883A7418669
:1042B0000547638BE7006388070C0947638DE700B8
:1042C0000D47638FE702E9A083A7018613871700D4
:1042D00023A0E18675A883A701861387170023A072
:1042E000E18603A70186A54763F1E70AB707002027
:1042F000938707009C4B1167D8CB23A0018671A040
:1043000003A7818685476314F7081305F008EFD0EB
:10431000FF9CAA87ADC31945EFF0CFD0AA873E878F
:1043200083A701861D8F9307600963F2E70619458D
:10433000EFF06FDF83A70186D3F717D05385F720FF
:10434000EFC04057D16703A6874C83A6C74CEFB098
:10435000C01BAA872E883E85C285EFC0603EAA8713
:10436000139707014183B7070020239CE7220947E1
:1043700023A4E18629A81945EFF0CFCAAA873E8772
:1043800023A0E18629A0010021A0010011A00100C5
:104390000100B240224441018280411106C622C47C
:1043A000000883A741860947637CF7000D47639A9D
:1043B000E7001945EFF02FD7054723A4E18611A0A8
:1043C00001000100B240224441018280011106CE69
:1043D00022CC0010232204FE83C7D18663890716EE
:1043E00019A8930734FE0546BE85B76700201385DC
:1043F00007BBEF301051930734FEBE851D45EFF02B
:10440000AFF8AA87F9FF034734FEA9476311F714F1
:1044100099472322F4FE130744FE930784FE854642
:104420003A86BE85B7670020138507BBEF40002C96
:10443000930784FE138737000D46D1679385074D98
:104440003A85EFD04060AA87A9E303A7418789474F
:104450006306F70E054723AAE186B7670020138598
:1044600007BBEF30701CAA872322F4FE930744FE9B
:1044700081463E86B76700209385C7C4B767002092
:10448000138507BBEF40802655A8930784FE13874A
:1044900037000D46D1679385474D3A85EFD0A05A36
:1044A000AA87A9E303A7018789476309F708054796
:1044B00023A8E186B7670020138507BBEF30D0162D
:1044C000AA872322F4FE930744FE81463E86B767FF
:1044D00000209385C7BCB7670020138507BBEF405A
:1044E000E020A9A8930784FE138737000D46D16703
:1044F0009385874D3A85EFD00055AA87A1E303A79E
:1045000081878947630CF702054723ACE186B767CB
:104510000020138507BBEF303011AA872322F4FE59
:10452000930744FE81463E86B76700209385C7CC3B
:10453000B7670020138507BBEF40401BB76700201B
:10454000138507BBEF30A06905472386E18601008C
:10455000F240624405618280011106CE22CC001037
:10456000AA87A307F4FEB707002093870700DC4360
:104570000567D8CB8347F4FEBE850545EFE01FB342
:10458000B707002093870700DC43056798CB01003D
:10459000F240624405618280011106CE22CC0010F7
:1045A000AA8736872317F4FEAE872316F4FEB28758
:1045B0002315F4FEBA872314F4FE83C70181C207D2
:1045C000C1830357E4FEB337F70093F7F70F3E8735
:1045D0001306200BD1679385075C3A85EF30600D99
:1045E00083C71181C207C1830357C4FEB337F700E5
:1045F00093F7F70F3E871306300BD1679385075C5F
:104600003A85EF30000B83C70181C207C18303578E
:10461000A4FEB337F70093F7F70F3E871306400B5E
:10462000D1679385075C3A85EF30A00883C7118175
:10463000C207C183035784FEB337F70093F7F70F20
:104640003E871306500BD1679385075C3A85EF30A0
:10465000400683A781800547638CE70681CB094725
:10466000638AE70C0D476389E71259AA1305A00274
:10467000E5358357E4FE93878702C207C183BE8571
:104680000545EFE05FB18357A4FE93878702C20719
:10469000C183BE850545EFE01FB01305B0026D3D37
:1046A0008357C4FE93874703C207C183BE85054570
:1046B000EFE07FAE835784FE93874703C207C18331
:1046C000BE850545EFE03FAD1305C00271350DAA6B
:1046D0001305A00251358357E4FE93878702C20772
:1046E000C183BE850545EFE01FAB8357A4FE9387CA
:1046F0008702C207C183BE850545EFE0DFA9130528
:10470000B002993D8357C4FE93875703C207C18304
:10471000BE850545EFE03FA8835784FE9387570386
:10472000C207C183BE850545EFE0FFA61305C002A1
:104730002535F9A01305A00205358357E4FE9387BC
:104740004703C207C183BE850545EFE0DFA4835759
:10475000A4FE93874703C207C183BE850545EFE0EA
:104760009FA31305B002CD3B8357C4FE93878702F6
:10477000C207C183BE850545EFE0FFA1835784FED4
:1047800093878702C207C183BE850545EFE0BFA0BE
:104790001305C002D133ADA01305A002753B8357AA
:1047A000E4FE93875703C207C183BE850545EFE04A
:1047B0009F9E8357A4FE93875703C207C183BE857C
:1047C0000545EFE05F9D1305B002EFF0FFD883577A
:1047D000C4FE93878702C207C183BE850545EFE00B
:1047E0009F9B835784FE93878702C207C183BE8540
:1047F0000545EFE05F9A1305C002EFF0FFD5010019
:104800000100F240624405618280797106D622D4AB
:1048100000189307C4FD3E85EF2010758547231EC1
:10482000F4FC83C70181C207C183231FF4FC83C743
:104830001181C207C1832310F4FE83A7C1800547FD
:10484000638AE70099EF99472301F4FEA147A3018A
:10485000F4FE09A8A1472301F4FEC147A301F4FE19
:1048600011A00100B7570000938787D52324F4FED9
:10487000B7570000938707892326F4FE9307C4FDEA
:104880003E85EF2010740100B250225445618280B1
:10489000011106CE22CC26CA00100A85AA8403C5BF
:1048A0000181AA88FD18232214FF2A83814393588B
:1048B000C3011397430033E7E80093164300AA852A
:1048C000014613D7C50113184600336807019397B3
:1048D0004500AA878607BD07918392073301F140FF
:1048E0008A878507858386072320F4FE232404FE18
:1048F000232604FEB707002093870700DC47130731
:104900000020D8CB83C70181C207C183FD1713974D
:104910000701418383C71181C207C183FD17C20705
:10492000C183BE863A8681450145EFF0FFC6232448
:1049300004FE15A0B707002003D7C723832604FE73
:10494000832784FE8607B6972390E700832784FE9B
:1049500085072324F4FE83C701813E87832784FED5
:10496000E3EAE7FC232604FE39A8032704FE83C7F5
:1049700001813E86BA850545EFE03F8C8327C4FE62
:1049800085072326F4FE83C711813E878327C4FE53
:10499000E3EDE7FCB707002093870700DC47130728
:1049A000002098CB26810100130104FEF2406244EE
:1049B000D24405618280011122CE00102326A4FE7C
:1049C0000327C4FE23A4E18083A781800547637683
:1049D000F7000D476363F70209A841572388E18078
:1049E000130770F8A388E18009A8130770F82388DB
:1049F000E1804157A388E180010001007244056114
:104A00008280011122CE0010AA872E872317F4FE80
:104A1000BA872316F4FEB70700200357E4FE239D50
:104A2000E722B70700200357C4FE239EE7220100B8
:104A30007244056182806971232611122324811238
:104A4000001AAA87AE863287231FF4ECB687231E8E
:104A5000F4ECBA87A30DF4EC83C70181C207C183CC
:104A60000357E4EDB337F70093F7F70F3E871306CC
:104A7000601DD1679385075C3A85EF20904383C71B
:104A80001181C207C1830357C4EDB337F70093F711
:104A9000F70F3E871306701DD1679385075C3A8533
:104AA000EF203041A30704FE230704FEB7070020D0
:104AB00093870700DC4713070020D8CB83A7C1806A
:104AC0000547638EE70E639907268357E4ED950744
:104AD0001396070141828357C4ED9D079396070102
:104AE000C1820357C4ED8357E4EDBA853E85EFF0EC
:104AF000BFAAA30704FE75A08307B4ED138707FEC2
:104B00008346F4FE5566BA878607BA978607130769
:104B10000630BA97B69783C70700A306F4FE2307AB
:104B200004FEB5A08347D4FE858B8DC78346F4FE73
:104B30000347E4FEBA878607BA978607B697370712
:104B400000200357A7238607930604FFB697239CEC
:104B5000E7EE25A08346F4FE0347E4FEBA87860706
:104B6000BA978607B697370700200357C7238607EB
:104B7000930604FFB697239CE7EE8347D4FE858314
:104B8000A306F4FE8347E4FE85072307F4FE0347EC
:104B9000E4FE9D47E3F8E7F88347F4FE8507A307A3
:104BA000F4FE0347F4FE9547E3F8E7F4930784EE39
:104BB00013060003BE850545EFE02FE8BDAA835725
:104BC000E4ED9D071396070141828357C4EDBD07AD
:104BD00093960701C1820357C4ED8357E4EDBA856C
:104BE0003E85EFF07F9BA30704FE0DAA8307B4ED7B
:104BF000938607FE8347F4FE55679206130707D195
:104C00003697BA9783C707002306F4FE8307B4EDEF
:104C1000938607FE8347F4FEA107556792061307A4
:104C200007D13697BA9783C70700A305F4FE230779
:104C300004FE85A08347C4FE858B95C30347F4FE1D
:104C40008347E4FE8E07BA97370700200357A72350
:104C50008607930604FFB697239CE7EE0DA0034753
:104C6000F4FE8347E4FE8E07BA9737070020035708
:104C7000C7238607930604FFB697239CE7EE834776
:104C8000C4FE85832306F4FE8347E4FE85072307DD
:104C9000F4FE0347E4FE9D47E3FEE7F8230704FE26
:104CA000A5A08347B4FE858B85C70347F4FE8347E1
:104CB000E4FE8E07BA97938707043707002003574F
:104CC000A7238607930604FFB697239CE7EE1DA053
:104CD0000347F4FE8347E4FE8E07BA9793870704E1
:104CE000370700200357C7238607930604FFB697AC
:104CF000239CE7EE8347B4FE8583A305F4FE834738
:104D0000E4FE85072307F4FE0347E4FE9D47E3FA2C
:104D1000E7F88347F4FE8507A307F4FE0347F4FE94
:104D20009D47E3F5E7EC930784EE13060008BE8584
:104D30000545EFE08FD011A00100B7070020938751
:104D40000700DC471307002098CB01008320C11225
:104D50000324811255618280797106D622D400180D
:104D6000AA872E87232CC4FC231FF4FCBA87231E9A
:104D7000F4FC83C70181C207C1830357E4FDB33745
:104D8000F70093F7F70F3E871306D022D16793857C
:104D9000075C3A85EF20F01183C71181C207C183F8
:104DA0000357C4FDB337F70093F7F70F3E87130699
:104DB000E022D1679385075C3A85EF20900F231797
:104DC00004FE71A083A7C18005476381E704B5EBAA
:104DD0000357E4FEBA878607BA9786071397070139
:104DE00041838357E4FDBA9793960701C1828357A5
:104DF000E4FE032784FDBA97038707008357C4FDA9
:104E00003A86BE853685EFF01FC32DA88357E4FE92
:104E10008E071397070141838357E4FDBA97939652
:104E20000701C1828357E4FE032784FDBA970387F5
:104E300007008357C4FD3A86BE853685EFF0BFBFB5
:104E400011A001008357E4FE85072317F4FE835762
:104E5000E4FE032784FDBA9783870700A5F70100C6
:104E6000B250225445618280411106C622C4000816
:104E70001308F00FC167F91705671307F702856676
:104E80009386D60237A64A041306062081450545B7
:104E9000EFE0CFD6C146014685451305C002EFC0FD
:104EA0001FE8C1460146854513058006EFC03FE770
:104EB000C1460546854513059006EFC05FE6C1462D
:104EC0000546854513050006EFC07FE583A7818071
:104ED0003E85EFF05FAEB707002003D7A723B707E3
:104EE000002083D7C723BE853A85EFF09FB1B7076F
:104EF000002093870700DC4713070010D8CB130569
:104F0000800CEFC0FFA8B707002093870700DC479D
:104F10001307001098CB13054006EFC07FA7B70713
:104F2000002093870700DC4713070020D8CB130528
:104F30006003EFF06FE213054006EFC07FA583A783
:104F4000818005476380E70281CB09476382E702DE
:104F50000D476384E70205A89305000A0545EFE0C5
:104F6000EF9415A0930500070545EFE02F9421A8C5
:104F700081450545EFE08F9339A09305000C054569
:104F8000EFE0CF9201001305A003EFF0EFDC9545B1
:104F90000545EFE0AF911305200BEFF0EFDBB145D6
:104FA0000545EFE0AF90B1450545EFE02F90814515
:104FB0000545EFE0AF8F930530030545EFE00F8F18
:104FC000930530030545EFE06F8E1305700BEFF08E
:104FD000AFD8930550030545EFE04F8D1305B00B97
:104FE000EFF08FD7930570030545EFE02F8C130585
:104FF000000CEFF06FD69305C0020545EFE00F8B74
:105000001305200CEFF04FD585450545EFE00F8ADD
:105010001305300CEFF04FD4C9450545EFE00F897B
:105020001305400CEFF04FD3930500020545EFE068
:10503000EF871305600CEFF02FD2BD450545EFE07B
:10504000EF861305000DEFF02FD19305400A0545BB
:10505000EFE0CF859305100A0545EFE02F85130596
:10506000000EEFF06FCF9305000D0545EFE00F84C4
:1050700091450545EFE08F83B5450545EFE00F838A
:10508000C5450545EFE08F82CD450545EFE00F8230
:105090009305B0020545EFE06F819305F0030545E8
:1050A000EFE0CF80930540050545EFE02F809305A5
:1050B000C0040545EFD09FFFE1450545EFD01FFF38
:1050C000B5450545EFD09FFEAD450545EFD01FFE28
:1050D000FD450545EFD09FFD930530020545EFD016
:1050E000FFFC1305100EEFF02FC79305000D0545CB
:1050F000EFD0DFFB91450545EFD05FFBB14505459E
:10510000EFD0DFFAC5450545EFD05FFACD4505453F
:10511000EFD0DFF99305C0020545EFD03FF99305C5
:10512000F0030545EFD09FF8930540040545EFD007
:10513000FFF7930510050545EFD05FF79305F002E3
:105140000545EFD0BFF6FD450545EFD03FF6FD45DF
:105150000545EFD0BFF5930500020545EFD01FF5DB
:10516000930530020545EFD07FF413051002EFF0F0
:10517000AFBE4545EFF04FBE13058007EFC05F811E
:1051800013059002EFF04FBDB7070020938707008B
:10519000DC471307002098CBEFF08FEFEFF0EFE63E
:1051A0000100B240224441018280011106CE22CC8E
:1051B0000010A30704FEA30704FE01A20347F4FEA8
:1051C000D5670A07938747CEBA979C433E85EFC0C1
:1051D000FFB0AA873E8785476301F7068347F4FE41
:1051E00037670020939627001307C7D436971843D4
:1051F000050737660020939627009307C6D4B69715
:1052000098C383A7C1871307C0123357F702834699
:10521000F4FEB76700208A069387C7D4B6979C43ED
:1052200063E8E7080347F4FEB76700200A0793879F
:1052300007D6BA97094798C3A5A80347F4FEB767EE
:1052400000200A07938707D6BA9798438947630DCA
:10525000F70283A7C18729473357F7028346F4FE35
:10526000B76700208A069387C7D4B6979C4363ED3F
:10527000E7000347F4FEB76700200A07938707D6C5
:10528000BA97054798C319A80347F4FEB7670020EB
:105290000A07938707D6BA9723A007000347F4FEAF
:1052A000B76700200A079387C7D4BA9723A00700DF
:1052B0008347F4FE8507A307F4FE0347F4FE9147F6
:1052C000E3FEE7EE0100F2406244056182800111D5
:1052D00022CE00102326A4FEB76700200327C4FEB9
:1052E0000A07938707D6BA979C433E8572440561A7
:1052F0008280797106D622D40018232EA4FC83273D
:10530000C4FDB337F00093F7F70F3E871306C008CC
:10531000D167938507603A85EF20A039A30704FE83
:10532000A30704FE3DA80347F4FED5670A07938749
:1053300047CEBA979C4393068004054681453E8537
:10534000EFC0FF9D0347F4FEB76700200A0793876D
:1053500007D6BA9723A007008347F4FE8507A30763
:10536000F4FE0347F4FE9147E3FFE7FA0327C4FD89
:1053700023AEE1860100B25022544561828039712A
:1053800006DE22DC80002326A4FC8547A307F4FE6A
:10539000231304FE231604FE232404FE232E04FC00
:1053A00083D781883E87930700236316F700A547BC
:1053B0002324F4FE29A0A1472324F4FE01008DA894
:1053C000930750FA2300F4FE832784FE8A070327FD
:1053D000C4FCBA978397070093F7F70FA300F4FE76
:1053E000832784FE8A070327C4FCBA978397270084
:1053F0002313F4FE835764FEA183C207C18393F78E
:10540000F70F2301F4FE835764FE93F7F70FA30110
:10541000F4FE930704FE1146BE851145EFE04FE20E
:105420000945EFC0EFD6832784FEFD172324F4FE41
:10543000032784FE9307E00FE3F4E7F883A741888E
:105440003E85EF20701E2A87894763FFE7028D475C
:10545000232EF4FC83A741881306C4FD130704FE22
:105460008146BA853E85EF306028034714FE9307D6
:10547000F00F6308F700034724FE9307F00F63154E
:10548000F700A30704FE31A80545EFC06FD083578E
:10549000C4FE138717002316E4FE1307700CE37F86
:1054A000F7F88347F4FE3E85F25062542161828012
:1054B000797106D622D40018232EA4FCA30704FE7B
:1054C000230704FE231504FE231604FE232004FEF6
:1054D00083D781883E87930700236316F700A5478B
:1054E000A307F4FE29A0A147A307F4FE0100834708
:1054F000F4FEFD1793F7F70FA307F4FE11AA03D7E5
:1055000081889307F02263EDE7008307F4FE8A07A2
:105510000327C4FDBA9703970700A5476300F70E5A
:10552000930750FA2302F4FEC557A302F4FE830743
:10553000F4FE8A070327C4FDBA9783970700231553
:10554000F4FE8357A4FEA183C207C18393F7F70F2C
:105550002303F4FE8357A4FE93F7F70FA303F4FE8F
:10556000930744FE1146BE851145EFE06FCD23162B
:1055700004FE83A741883E85EF20100B2A878947C8
:1055800063F7E7048D472320F4FE83A741881306C1
:1055900004FE130744FE8146BA853E85EF300015B0
:1055A000834754FEA20793960701C186834764FE92
:1055B0001397070141878307F4FE8A070326C4FD7A
:1055C000B297558F420741872391E70031A80545DF
:1055D000EFC00FBC8357C4FE138717002316E4FEE9
:1055E0001307700CE377F7F80357C4FE9307800C9A
:1055F00063F7E70085472307F4FE39A80100830716
:10560000F4FE93F7F70FFD1793F7F70FA307F4FED8
:105610008307F4FEE3D507EE8347E4FE3E85B250F0
:10562000225445618280011106CE22CC0010232431
:1056300004FE8547A307F4FE231604FE232204FE7E
:1056400083A741883E85EF20207EAA8791C783A744
:1056500041883E85EF20A0589305F00F1145EFE0FB
:10566000CFB8930750FA2304F4FEBD57A304F4FE09
:10567000230504FEA30504FE930784FE1146BE85A0
:105680001145EFE0EFBB231604FE83A741883E855A
:10569000EF2080792A87894763F0E7048D4723222A
:1056A000F4FE83A74188130644FE130784FE814657
:1056B000BA853E85EF3080030347A4FE8547630922
:1056C000F7000347A4FE89476304F700854711A04C
:1056D0008147A307F4FE31A80545EFC06FAB8357A0
:1056E000C4FE138717002316E4FE1307700CE37E35
:1056F000F7F88347F4FE3E85F240624405618280FC
:10570000011106CE22CC0010A30704FE9307F4FE7D
:10571000BE851145EFE04FC783A7418885C7034782
:10572000F4FE9307500A6317F70083A741883E856C
:10573000EF20E04A83A741880347F4FEBA853E85FF
:10574000EF2020760100F240624405618280411121
:1057500022C6000805472380E18801003244410148
:105760008280011106CE22CC0010231704FE2316DE
:1057700004FE232204FE930750FA2304F4FEC557C7
:10578000A304F4FE230504FEC957A305F4FE930702
:1057900084FE1146BE851145EFE08FAA83A741889C
:1057A0003E85EF2060682A87894763F0E7048D47CC
:1057B0002322F4FE83A74188130644FE130784FEC8
:1057C0008146BA853E85EF207072834794FEA2071A
:1057D0001397070141878347A4FEC207C187D98F6A
:1057E000C207C1872316F4FE31A80545EFC04F9AC2
:1057F0008357E4FE138717002317E4FE1307700C8A
:10580000E37EF7F88357C4FE3E85F24062440561AB
:1058100082805D7186C6A2C480088547A307F4FE16
:10582000054723AAE1809307C4FD1307C00493062C
:1058300020061306401F81453E85EFD00FFC9307DD
:10584000C4FD3E85EF80A02CAA87B5EFD16703AEDB
:10585000876813878768032347001387876883282F
:105860008700138787680328C70013878768084B5A
:10587000138787684C4B13878768104F1387876897
:10588000544F13878768185393878768DC53232AFC
:10589000C4FB232C64FA232E14FB232004FD2322B3
:1058A000A4FC2324B4FC2326C4FC2328D4FC232AF0
:1058B000E4FC232CF4FC930744FB3E85EF80002B93
:1058C000AA87A307F4FE8347F4FE3E85B64026442C
:1058D00061618280597186D6A2D480188547A3075A
:1058E000F4FE230704FE232404FE23AA01801305EB
:1058F0000004EFB06044AA872324F4FE832784FECB
:1059000085E393067020D16713868762D1679385FC
:1059100087650145EF1070608947A307F4FE81A4F5
:105920006545EFB06041AA873E8723A2E18883A73F
:10593000418885E79306E020D16713868762D167A7
:10594000938547670145EF10505D032584FEEFB056
:10595000403F8947A307F4FE19A483A74188930613
:105960000004032684FE81453E85EF30D012916706
:105970009386270691671386C7048967938507581E
:105980001145EFE04FA685451145EFE0AF97EFF0E9
:105990005FDDAA873E872394E18883D7818889CFFA
:1059A000EFF07FC8AA8789CB81451145EFE08F953D
:1059B0008D47A307F4FE65A2D16703AE87681387FE
:1059C0008768032347001387876883288700138726
:1059D00087680328C70013878768084B1387876881
:1059E0004C4B13878768104F13878768544F138772
:1059F0008768185393878768DC532320C4FD2322CC
:105A000064FC232414FD232604FD2328A4FC232A5C
:105A1000B4FC232CC4FC232ED4FC2320E4FE23223C
:105A2000F4FED16703A3876E1387876E8328470030
:105A30001387876E032887001387876E484713876D
:105A4000876E0C4B1387876E504B1387876E144FEE
:105A50001387876E584F9387876E9C53232E64F865
:105A6000232014FB232204FB2324A4FA2326B4FAC4
:105A70002328C4FA232AD4FA232CE4FA232EF4FA96
:105A8000930704FC3E85EFF09F8FAA8785C7930696
:105A9000B024D16713868762D1679385076B014570
:105AA000EF10B04781451145EFE0CF858547A3074B
:105AB000F4FE75A09307C4F93E85EFF07F9FAA8797
:105AC00085C793067025D16713868762D167938552
:105AD000C76C0145EF10704481451145EFE08F829E
